{
  "abi": [
    {
      "inputs": [
        {
          "internalType": "address",
          "name": "_ledger",
          "type": "address"
        },
        {
          "internalType": "string",
          "name": "_kind",
          "type": "string"
        },
        {
          "internalType": "string",
          "name": "_name",
          "type": "string"
        },
        {
          "internalType": "string",
          "name": "_symbol",
          "type": "string"
        }
      ],
      "stateMutability": "nonpayable",
      "type": "constructor"
    },
    {
      "anonymous": false,
      "inputs": [
        {
          "indexed": true,
          "internalType": "address",
          "name": "owner",
          "type": "address"
        },
        {
          "indexed": true,
          "internalType": "address",
          "name": "spender",
          "type": "address"
        },
        {
          "indexed": false,
          "internalType": "uint256",
          "name": "value",
          "type": "uint256"
        }
      ],
      "name": "Approval",
      "type": "event"
    },
    {
      "anonymous": false,
      "inputs": [
        {
          "indexed": false,
          "internalType": "address",
          "name": "ledger",
          "type": "address"
        },
        {
          "indexed": false,
          "internalType": "address",
          "name": "token",
          "type": "address"
        },
        {
          "indexed": false,
          "internalType": "address",
          "name": "song",
          "type": "address"
        },
        {
          "indexed": false,
          "internalType": "uint256",
          "name": "amount",
          "type": "uint256"
        },
        {
          "indexed": false,
          "internalType": "string",
          "name": "kind",
          "type": "string"
        }
      ],
      "name": "SongBinding",
      "type": "event"
    },
    {
      "anonymous": false,
      "inputs": [
        {
          "indexed": true,
          "internalType": "address",
          "name": "from",
          "type": "address"
        },
        {
          "indexed": true,
          "internalType": "address",
          "name": "to",
          "type": "address"
        },
        {
          "indexed": false,
          "internalType": "uint256",
          "name": "value",
          "type": "uint256"
        }
      ],
      "name": "Transfer",
      "type": "event"
    },
    {
      "inputs": [
        {
          "internalType": "address",
          "name": "owner",
          "type": "address"
        },
        {
          "internalType": "address",
          "name": "spender",
          "type": "address"
        }
      ],
      "name": "allowance",
      "outputs": [
        {
          "internalType": "uint256",
          "name": "",
          "type": "uint256"
        }
      ],
      "stateMutability": "view",
      "type": "function"
    },
    {
      "inputs": [
        {
          "internalType": "address",
          "name": "spender",
          "type": "address"
        },
        {
          "internalType": "uint256",
          "name": "amount",
          "type": "uint256"
        }
      ],
      "name": "approve",
      "outputs": [
        {
          "internalType": "bool",
          "name": "",
          "type": "bool"
        }
      ],
      "stateMutability": "nonpayable",
      "type": "function"
    },
    {
      "inputs": [
        {
          "internalType": "address",
          "name": "account",
          "type": "address"
        }
      ],
      "name": "balanceOf",
      "outputs": [
        {
          "internalType": "uint256",
          "name": "",
          "type": "uint256"
        }
      ],
      "stateMutability": "view",
      "type": "function"
    },
    {
      "inputs": [
        {
          "internalType": "address",
          "name": "_song",
          "type": "address"
        }
      ],
      "name": "bindToSong",
      "outputs": [],
      "stateMutability": "nonpayable",
      "type": "function"
    },
    {
      "inputs": [],
      "name": "decimals",
      "outputs": [
        {
          "internalType": "uint8",
          "name": "",
          "type": "uint8"
        }
      ],
      "stateMutability": "view",
      "type": "function"
    },
    {
      "inputs": [
        {
          "internalType": "address",
          "name": "spender",
          "type": "address"
        },
        {
          "internalType": "uint256",
          "name": "subtractedValue",
          "type": "uint256"
        }
      ],
      "name": "decreaseAllowance",
      "outputs": [
        {
          "internalType": "bool",
          "name": "",
          "type": "bool"
        }
      ],
      "stateMutability": "nonpayable",
      "type": "function"
    },
    {
      "inputs": [],
      "name": "firstHolder",
      "outputs": [
        {
          "internalType": "address",
          "name": "",
          "type": "address"
        }
      ],
      "stateMutability": "view",
      "type": "function"
    },
    {
      "inputs": [],
      "name": "getHolders",
      "outputs": [
        {
          "components": [
            {
              "internalType": "address",
              "name": "holder",
              "type": "address"
            },
            {
              "internalType": "uint256",
              "name": "amount",
              "type": "uint256"
            }
          ],
          "internalType": "struct Balance[]",
          "name": "",
          "type": "tuple[]"
        }
      ],
      "stateMutability": "view",
      "type": "function"
    },
    {
      "inputs": [
        {
          "internalType": "address",
          "name": "spender",
          "type": "address"
        },
        {
          "internalType": "uint256",
          "name": "addedValue",
          "type": "uint256"
        }
      ],
      "name": "increaseAllowance",
      "outputs": [
        {
          "internalType": "bool",
          "name": "",
          "type": "bool"
        }
      ],
      "stateMutability": "nonpayable",
      "type": "function"
    },
    {
      "inputs": [],
      "name": "kind",
      "outputs": [
        {
          "internalType": "string",
          "name": "",
          "type": "string"
        }
      ],
      "stateMutability": "view",
      "type": "function"
    },
    {
      "inputs": [],
      "name": "ledger",
      "outputs": [
        {
          "internalType": "address",
          "name": "",
          "type": "address"
        }
      ],
      "stateMutability": "view",
      "type": "function"
    },
    {
      "inputs": [],
      "name": "max",
      "outputs": [
        {
          "internalType": "uint256",
          "name": "",
          "type": "uint256"
        }
      ],
      "stateMutability": "pure",
      "type": "function"
    },
    {
      "inputs": [],
      "name": "name",
      "outputs": [
        {
          "internalType": "string",
          "name": "",
          "type": "string"
        }
      ],
      "stateMutability": "view",
      "type": "function"
    },
    {
      "inputs": [],
      "name": "parentWork",
      "outputs": [
        {
          "internalType": "address",
          "name": "",
          "type": "address"
        }
      ],
      "stateMutability": "view",
      "type": "function"
    },
    {
      "inputs": [],
      "name": "symbol",
      "outputs": [
        {
          "internalType": "string",
          "name": "",
          "type": "string"
        }
      ],
      "stateMutability": "view",
      "type": "function"
    },
    {
      "inputs": [],
      "name": "totalSupply",
      "outputs": [
        {
          "internalType": "uint256",
          "name": "",
          "type": "uint256"
        }
      ],
      "stateMutability": "view",
      "type": "function"
    },
    {
      "inputs": [
        {
          "internalType": "address",
          "name": "to",
          "type": "address"
        },
        {
          "internalType": "uint256",
          "name": "amount",
          "type": "uint256"
        }
      ],
      "name": "transfer",
      "outputs": [
        {
          "internalType": "bool",
          "name": "",
          "type": "bool"
        }
      ],
      "stateMutability": "nonpayable",
      "type": "function"
    },
    {
      "inputs": [
        {
          "internalType": "address",
          "name": "from",
          "type": "address"
        },
        {
          "internalType": "address",
          "name": "to",
          "type": "address"
        },
        {
          "internalType": "uint256",
          "name": "amount",
          "type": "uint256"
        }
      ],
      "name": "transferFrom",
      "outputs": [
        {
          "internalType": "bool",
          "name": "",
          "type": "bool"
        }
      ],
      "stateMutability": "nonpayable",
      "type": "function"
    }
  ],
  "bytecode": {
    "object": "0x60806040523480156200001157600080fd5b50604051620015a9380380620015a9833981016040819052620000349162000259565b8181600362000044838262000399565b50600462000053828262000399565b5050600780546001600160a01b0319166001600160a01b0387161790555060056200007f848262000399565b50620000958468056bc75e2d631000006200009f565b505050506200048c565b6001600160a01b038216620000fa5760405162461bcd60e51b815260206004820152601f60248201527f45524332303a206d696e7420746f20746865207a65726f206164647265737300604482015260640160405180910390fd5b80600260008282546200010e919062000465565b90915550506001600160a01b038216600090815260208190526040812080548392906200013d90849062000465565b90915550506040518181526001600160a01b038316906000907fddf252ad1be2c89b69c2b068fc378daa952ba7f163c4a11628f55a4df523b3ef9060200160405180910390a35050565b505050565b634e487b7160e01b600052604160045260246000fd5b600082601f830112620001b457600080fd5b81516001600160401b0380821115620001d157620001d16200018c565b604051601f8301601f19908116603f01168101908282118183101715620001fc57620001fc6200018c565b816040528381526020925086838588010111156200021957600080fd5b600091505b838210156200023d57858201830151818301840152908201906200021e565b838211156200024f5760008385830101525b9695505050505050565b600080600080608085870312156200027057600080fd5b84516001600160a01b03811681146200028857600080fd5b60208601519094506001600160401b0380821115620002a657600080fd5b620002b488838901620001a2565b94506040870151915080821115620002cb57600080fd5b620002d988838901620001a2565b93506060870151915080821115620002f057600080fd5b50620002ff87828801620001a2565b91505092959194509250565b600181811c908216806200032057607f821691505b6020821081036200034157634e487b7160e01b600052602260045260246000fd5b50919050565b601f8211156200018757600081815260208120601f850160051c81016020861015620003705750805b601f850160051c820191505b8181101562000391578281556001016200037c565b505050505050565b81516001600160401b03811115620003b557620003b56200018c565b620003cd81620003c684546200030b565b8462000347565b602080601f831160018114620004055760008415620003ec5750858301515b600019600386901b1c1916600185901b17855562000391565b600085815260208120601f198616915b82811015620004365788860151825594840194600190910190840162000415565b5085821015620004555787850151600019600388901b60f8161c191681555b5050505050600190811b01905550565b600082198211156200048757634e487b7160e01b600052601160045260246000fd5b500190565b61110d806200049c6000396000f3fe608060405234801561001057600080fd5b50600436106101365760003560e01c806356397c35116100b257806395d89b4111610081578063a9059cbb11610066578063a9059cbb1461027c578063dd62ed3e1461028f578063decfa258146102c857600080fd5b806395d89b4114610261578063a457c2d71461026957600080fd5b806356397c35146102095780635fe8e7cc1461021c5780636ac5db191461023157806370a082311461023857600080fd5b806318160ddd1161010957806323b872dd116100ee57806323b872dd146101d4578063313ce567146101e757806339509351146101f657600080fd5b806318160ddd146101af5780631bf7628b146101c157600080fd5b806304baa00b1461013b57806306fdde0314610159578063095ea7b3146101615780631683252d14610184575b600080fd5b6101436102dd565b6040516101509190610de4565b60405180910390f35b61014361036b565b61017461016f366004610e55565b6103fd565b6040519015158152602001610150565b600654610197906001600160a01b031681565b6040516001600160a01b039091168152602001610150565b6002545b604051908152602001610150565b600854610197906001600160a01b031681565b6101746101e2366004610e7f565b610415565b60405160128152602001610150565b610174610204366004610e55565b610494565b600754610197906001600160a01b031681565b6102246104d3565b6040516101509190610ebb565b60646101b3565b6101b3610246366004610f13565b6001600160a01b031660009081526020819052604090205490565b610143610548565b610174610277366004610e55565b610557565b61017461028a366004610e55565b610601565b6101b361029d366004610f35565b6001600160a01b03918216600090815260016020908152604080832093909416825291909152205490565b6102db6102d6366004610f13565b610666565b005b600580546102ea90610f68565b80601f016020809104026020016040519081016040528092919081815260200182805461031690610f68565b80156103635780601f1061033857610100808354040283529160200191610363565b820191906000526020600020905b81548152906001019060200180831161034657829003601f168201915b505050505081565b60606003805461037a90610f68565b80601f01602080910402602001604051908101604052809291908181526020018280546103a690610f68565b80156103f35780601f106103c8576101008083540402835291602001916103f3565b820191906000526020600020905b8154815290600101906020018083116103d657829003601f168201915b5050505050905090565b60003361040b8185856107fb565b5060019392505050565b600080610423858585610953565b9050806104775760405162461bcd60e51b815260206004820152601360248201527f7472616e7366657246726f6d206661696c65640000000000000000000000000060448201526064015b60405180910390fd5b6104808561096c565b6104898461096c565b506001949350505050565b3360008181526001602090815260408083206001600160a01b038716845290915281205490919061040b90829086906104ce908790610fb8565b6107fb565b60606009805480602002602001604051908101604052809291908181526020016000905b8282101561053f576000848152602090819020604080518082019091526002850290910180546001600160a01b031682526001908101548284015290835290920191016104f7565b50505050905090565b60606004805461037a90610f68565b3360008181526001602090815260408083206001600160a01b0387168452909152812054909190838110156105f45760405162461bcd60e51b815260206004820152602560248201527f45524332303a2064656372656173656420616c6c6f77616e63652062656c6f7760448201527f207a65726f000000000000000000000000000000000000000000000000000000606482015260840161046e565b61048982868684036107fb565b60008061060e8484610b2d565b90508061065d5760405162461bcd60e51b815260206004820152600f60248201527f7472616e73666572206661696c65640000000000000000000000000000000000604482015260640161046e565b61040b8461096c565b6007546001600160a01b0316336001600160a01b0316146106c95760405162461bcd60e51b815260206004820152601b60248201527f6f6e6c79206c656467657220616c6c6f77656420746f2062696e640000000000604482015260640161046e565b6006546001600160a01b0316156107225760405162461bcd60e51b815260206004820152601560248201527f616c726561647920626f756e6420746f20736f6e670000000000000000000000604482015260640161046e565b6001600160a01b0381166107785760405162461bcd60e51b815260206004820152600c60248201527f696e76616c696420736f6e670000000000000000000000000000000000000000604482015260640161046e565b6006805473ffffffffffffffffffffffffffffffffffffffff19166001600160a01b038381169182179092556007549091166000818152602081905260409020547f7436f71aa25c40311b9ae8ba3476987465977667616417c002b56e645ffbd73e92309160056040516107f0959493929190610fd0565b60405180910390a150565b6001600160a01b0383166108765760405162461bcd60e51b8152602060048201526024808201527f45524332303a20617070726f76652066726f6d20746865207a65726f2061646460448201527f7265737300000000000000000000000000000000000000000000000000000000606482015260840161046e565b6001600160a01b0382166108f25760405162461bcd60e51b815260206004820152602260248201527f45524332303a20617070726f766520746f20746865207a65726f20616464726560448201527f7373000000000000000000000000000000000000000000000000000000000000606482015260840161046e565b6001600160a01b0383811660008181526001602090815260408083209487168084529482529182902085905590518481527f8c5be1e5ebec7d5bd14f71427d1e84f3dd0314c0f7b2291e5b200ac8c7c3b925910160405180910390a3505050565b600033610961858285610b3b565b610489858585610bcd565b6001600160a01b0381166000908152600a60205260409020541580156109a057506008546001600160a01b03828116911614155b15610add57604080518082018252600060208083018290526001600160a01b03851680845282528190529190912054602082019081526009805460018082018355600083905284517f6e1540171b6c0c960b71a7020d9f60077f6af931a8bbf590da0223dacf75c7af6002909302928301805473ffffffffffffffffffffffffffffffffffffffff19166001600160a01b0390921691909117905592517f6e1540171b6c0c960b71a7020d9f60077f6af931a8bbf590da0223dacf75c7b09091015554610a6d91906110aa565b6001600160a01b0383166000908152600a602052604081209190915560098054909190610a9c57610a9c6110c1565b60009182526020909120600290910201546008805473ffffffffffffffffffffffffffffffffffffffff19166001600160a01b039092169190911790555050565b6001600160a01b03811660009081526020818152604080832054600a90925290912054600980549091908110610b1557610b156110c1565b90600052602060002090600202016001018190555050565b60003361040b818585610bcd565b6001600160a01b038381166000908152600160209081526040808320938616835292905220546000198114610bc75781811015610bba5760405162461bcd60e51b815260206004820152601d60248201527f45524332303a20696e73756666696369656e7420616c6c6f77616e6365000000604482015260640161046e565b610bc784848484036107fb565b50505050565b6001600160a01b038316610c495760405162461bcd60e51b815260206004820152602560248201527f45524332303a207472616e736665722066726f6d20746865207a65726f20616460448201527f6472657373000000000000000000000000000000000000000000000000000000606482015260840161046e565b6001600160a01b038216610cc55760405162461bcd60e51b815260206004820152602360248201527f45524332303a207472616e7366657220746f20746865207a65726f206164647260448201527f6573730000000000000000000000000000000000000000000000000000000000606482015260840161046e565b6001600160a01b03831660009081526020819052604090205481811015610d545760405162461bcd60e51b815260206004820152602660248201527f45524332303a207472616e7366657220616d6f756e742065786365656473206260448201527f616c616e63650000000000000000000000000000000000000000000000000000606482015260840161046e565b6001600160a01b03808516600090815260208190526040808220858503905591851681529081208054849290610d8b908490610fb8565b92505081905550826001600160a01b0316846001600160a01b03167fddf252ad1be2c89b69c2b068fc378daa952ba7f163c4a11628f55a4df523b3ef84604051610dd791815260200190565b60405180910390a3610bc7565b600060208083528351808285015260005b81811015610e1157858101830151858201604001528201610df5565b81811115610e23576000604083870101525b50601f01601f1916929092016040019392505050565b80356001600160a01b0381168114610e5057600080fd5b919050565b60008060408385031215610e6857600080fd5b610e7183610e39565b946020939093013593505050565b600080600060608486031215610e9457600080fd5b610e9d84610e39565b9250610eab60208501610e39565b9150604084013590509250925092565b602080825282518282018190526000919060409081850190868401855b82811015610f0657815180516001600160a01b03168552860151868501529284019290850190600101610ed8565b5091979650505050505050565b600060208284031215610f2557600080fd5b610f2e82610e39565b9392505050565b60008060408385031215610f4857600080fd5b610f5183610e39565b9150610f5f60208401610e39565b90509250929050565b600181811c90821680610f7c57607f821691505b602082108103610f9c57634e487b7160e01b600052602260045260246000fd5b50919050565b634e487b7160e01b600052601160045260246000fd5b60008219821115610fcb57610fcb610fa2565b500190565b60006001600160a01b038088168352602081881681850152818716604085015285606085015260a0608085015260009150845482600182811c91508083168061101a57607f831692505b848310810361103757634e487b7160e01b86526022600452602486fd5b60a0880183905260c08801818015611056576001811461106c57611097565b60ff198616825284151560051b82019750611097565b60008b81526020902060005b8681101561109157815484820152908501908801611078565b83019850505b50959d9c50505050505050505050505050565b6000828210156110bc576110bc610fa2565b500390565b634e487b7160e01b600052603260045260246000fdfea2646970667358221220de0f5567b4fe8f35ee886d3e6022f8ce1f3af699ec65c9fae059ff39cf39b3d864736f6c634300080f0033",
    "linkReferences": {}
  },
  "methodIdentifiers": {
    "allowance(address,address)": "dd62ed3e",
    "approve(address,uint256)": "095ea7b3",
    "balanceOf(address)": "70a08231",
    "bindToSong(address)": "decfa258",
    "decimals()": "313ce567",
    "decreaseAllowance(address,uint256)": "a457c2d7",
    "firstHolder()": "1bf7628b",
    "getHolders()": "5fe8e7cc",
    "increaseAllowance(address,uint256)": "39509351",
    "kind()": "04baa00b",
    "ledger()": "56397c35",
    "max()": "6ac5db19",
    "name()": "06fdde03",
    "parentWork()": "1683252d",
    "symbol()": "95d89b41",
    "totalSupply()": "18160ddd",
    "transfer(address,uint256)": "a9059cbb",
    "transferFrom(address,address,uint256)": "23b872dd"
  },
  "id": 4
}