{
  "abi": [
    {
      "inputs": [
        {
          "internalType": "address",
          "name": "_owner",
          "type": "address"
        }
      ],
      "stateMutability": "nonpayable",
      "type": "constructor"
    },
    {
      "anonymous": false,
      "inputs": [
        {
          "indexed": false,
          "internalType": "address",
          "name": "songAddress",
          "type": "address"
        },
        {
          "indexed": false,
          "internalType": "string",
          "name": "shortName",
          "type": "string"
        },
        {
          "indexed": false,
          "internalType": "string",
          "name": "symbol",
          "type": "string"
        },
        {
          "indexed": false,
          "internalType": "address",
          "name": "compToken",
          "type": "address"
        },
        {
          "indexed": false,
          "internalType": "address",
          "name": "recToken",
          "type": "address"
        },
        {
          "indexed": false,
          "internalType": "address",
          "name": "ledger",
          "type": "address"
        }
      ],
      "name": "NewSong",
      "type": "event"
    },
    {
      "anonymous": false,
      "inputs": [
        {
          "indexed": false,
          "internalType": "address",
          "name": "songAddress",
          "type": "address"
        },
        {
          "indexed": false,
          "internalType": "string",
          "name": "tokenType",
          "type": "string"
        },
        {
          "indexed": false,
          "internalType": "address",
          "name": "tokenAddress",
          "type": "address"
        },
        {
          "indexed": false,
          "internalType": "uint256",
          "name": "amount",
          "type": "uint256"
        },
        {
          "indexed": false,
          "internalType": "address",
          "name": "receiver",
          "type": "address"
        }
      ],
      "name": "RoyaltyTokenDistributed",
      "type": "event"
    },
    {
      "inputs": [],
      "name": "ledgerName",
      "outputs": [
        {
          "internalType": "string",
          "name": "",
          "type": "string"
        }
      ],
      "stateMutability": "view",
      "type": "function"
    },
    {
      "inputs": [
        {
          "components": [
            {
              "internalType": "string",
              "name": "shortName",
              "type": "string"
            },
            {
              "internalType": "string",
              "name": "fileHash",
              "type": "string"
            },
            {
              "internalType": "string",
              "name": "symbol",
              "type": "string"
            },
            {
              "internalType": "string",
              "name": "metadataUri",
              "type": "string"
            },
            {
              "components": [
                {
                  "components": [
                    {
                      "internalType": "address",
                      "name": "holderAddress",
                      "type": "address"
                    },
                    {
                      "internalType": "uint256",
                      "name": "amount",
                      "type": "uint256"
                    },
                    {
                      "internalType": "string",
                      "name": "memo",
                      "type": "string"
                    }
                  ],
                  "internalType": "struct SplitTarget[]",
                  "name": "compSplits",
                  "type": "tuple[]"
                },
                {
                  "components": [
                    {
                      "internalType": "address",
                      "name": "holderAddress",
                      "type": "address"
                    },
                    {
                      "internalType": "uint256",
                      "name": "amount",
                      "type": "uint256"
                    },
                    {
                      "internalType": "string",
                      "name": "memo",
                      "type": "string"
                    }
                  ],
                  "internalType": "struct SplitTarget[]",
                  "name": "recSplits",
                  "type": "tuple[]"
                }
              ],
              "internalType": "struct SplitInfo",
              "name": "splits",
              "type": "tuple"
            }
          ],
          "internalType": "struct SongMintingParams",
          "name": "_params",
          "type": "tuple"
        }
      ],
      "name": "mintSong",
      "outputs": [
        {
          "internalType": "address",
          "name": "",
          "type": "address"
        }
      ],
      "stateMutability": "nonpayable",
      "type": "function"
    },
    {
      "inputs": [
        {
          "internalType": "address",
          "name": "",
          "type": "address"
        },
        {
          "internalType": "address",
          "name": "",
          "type": "address"
        },
        {
          "internalType": "uint256",
          "name": "",
          "type": "uint256"
        },
        {
          "internalType": "bytes",
          "name": "",
          "type": "bytes"
        }
      ],
      "name": "onERC721Received",
      "outputs": [
        {
          "internalType": "bytes4",
          "name": "",
          "type": "bytes4"
        }
      ],
      "stateMutability": "pure",
      "type": "function"
    },
    {
      "inputs": [],
      "name": "owner",
      "outputs": [
        {
          "internalType": "address",
          "name": "",
          "type": "address"
        }
      ],
      "stateMutability": "view",
      "type": "function"
    }
  ],
  "bytecode": {
    "object": "0x608060405234801561001057600080fd5b5060405161648338038061648383398101604081905261002f91610054565b600380546001600160a01b0319166001600160a01b0392909216919091179055610084565b60006020828403121561006657600080fd5b81516001600160a01b038116811461007d57600080fd5b9392505050565b6163f0806100936000396000f3fe60806040523480156200001157600080fd5b5060043610620000525760003560e01c8063150b7a0214620000575780633619da4714620000c85780638da5cb5b14620000f8578063cf1f3dd7146200010c575b600080fd5b6200009262000068366004620007bd565b7f150b7a020000000000000000000000000000000000000000000000000000000095945050505050565b6040517fffffffff0000000000000000000000000000000000000000000000000000000090911681526020015b60405180910390f35b620000df620000d936600462000b18565b62000125565b6040516001600160a01b039091168152602001620000bf565b600354620000df906001600160a01b031681565b620001166200045e565b604051620000bf919062000c8a565b6003546000906001600160a01b03163314620001a1576040517f08c379a000000000000000000000000000000000000000000000000000000000815260206004820152600360248201527f4f57310000000000000000000000000000000000000000000000000000000000604482015260640160405180910390fd5b8151604051600091620001b79160200162000ca6565b604051602081830303815290604052905060008360400151604051602001620001e1919062000cef565b6040516020818303038152906040529050600084600001516040516020016200020b919062000d38565b60405160208183030381529060405290506000856040015160405160200162000235919062000d81565b6040516020818303038152906040529050600030858560405162000259906200077b565b620002679392919062000dca565b604051809103906000f08015801562000284573d6000803e3d6000fd5b50905060003084846040516200029a9062000789565b620002a89392919062000dca565b604051809103906000f080158015620002c5573d6000803e3d6000fd5b509050620002d7600080546001019055565b600080549050600081308b8686604051620002f29062000797565b6200030295949392919062000e8e565b604051809103906000f0801580156200031f573d6000803e3d6000fd5b50604051631bd9f44b60e31b81526001600160a01b0380831660048301529192509085169063decfa25890602401600060405180830381600087803b1580156200036857600080fd5b505af11580156200037d573d6000803e3d6000fd5b5050505062000396848b608001516000015183620004f4565b604051631bd9f44b60e31b81526001600160a01b03828116600483015284169063decfa25890602401600060405180830381600087803b158015620003da57600080fd5b505af1158015620003ef573d6000803e3d6000fd5b5050505062000408838b608001516020015183620004f4565b89516040808c015190517f62621224c17d3024ee10692689e627142244062388ae84d5ed08421d173401f0926200044792859289908990309062000fce565b60405180910390a19750505050505050505b919050565b600480546200046d9062001028565b80601f01602080910402602001604051908101604052809291908181526020018280546200049b9062001028565b8015620004ec5780601f10620004c057610100808354040283529160200191620004ec565b820191906000526020600020905b815481529060010190602001808311620004ce57829003601f168201915b505050505081565b8260005b83518110156200077457600084828151811062000519576200051962001064565b60200260200101519050826001600160a01b03166339509351308360200151670de0b6b3a76400006200054d919062001090565b6040517fffffffff0000000000000000000000000000000000000000000000000000000060e085901b1681526001600160a01b03909216600483015260248201526044016020604051808303816000875af1158015620005b1573d6000803e3d6000fd5b505050506040513d601f19601f82011682018060405250810190620005d79190620010b2565b50826001600160a01b03166323b872dd3083600001518460200151670de0b6b3a764000062000607919062001090565b6040517fffffffff0000000000000000000000000000000000000000000000000000000060e086901b1681526001600160a01b03938416600482015292909116602483015260448201526064016020604051808303816000875af115801562000674573d6000803e3d6000fd5b505050506040513d601f19601f820116820180604052508101906200069a9190620010b2565b507f84b7dad4b5bcae2295b4a27d05e142e81c1c2c5a08fbd2b73adc8929bb77ac8b84846001600160a01b03166304baa00b6040518163ffffffff1660e01b8152600401600060405180830381865afa158015620006fc573d6000803e3d6000fd5b505050506040513d6000823e601f3d908101601f19168201604052620007269190810190620010d6565b888460200151670de0b6b3a764000062000741919062001090565b85516040516200075695949392919062001156565b60405180910390a150806200076b816200119a565b915050620004f8565b5050505050565b61164f80620011b783390190565b61164d806200280683390190565b6125688062003e5383390190565b80356001600160a01b03811681146200045957600080fd5b600080600080600060808688031215620007d657600080fd5b620007e186620007a5565b9450620007f160208701620007a5565b935060408601359250606086013567ffffffffffffffff808211156200081657600080fd5b818801915088601f8301126200082b57600080fd5b8135818111156200083b57600080fd5b8960208285010111156200084e57600080fd5b9699959850939650602001949392505050565b634e487b7160e01b600052604160045260246000fd5b6040516060810167ffffffffffffffff811182821017156200089d576200089d62000861565b60405290565b60405160a0810167ffffffffffffffff811182821017156200089d576200089d62000861565b604051601f8201601f1916810167ffffffffffffffff81118282101715620008f557620008f562000861565b604052919050565b600067ffffffffffffffff8211156200091a576200091a62000861565b50601f01601f191660200190565b600082601f8301126200093a57600080fd5b8135620009516200094b82620008fd565b620008c9565b8181528460208386010111156200096757600080fd5b816020850160208301376000918101602001919091529392505050565b600082601f8301126200099657600080fd5b8135602067ffffffffffffffff80831115620009b657620009b662000861565b8260051b620009c7838201620008c9565b9384528581018301938381019088861115620009e257600080fd5b84880192505b8583101562000a785782358481111562000a025760008081fd5b88016060818b03601f190181131562000a1b5760008081fd5b62000a2562000877565b62000a32888401620007a5565b81526040838101358983015291830135918783111562000a525760008081fd5b62000a628d8a8587010162000928565b90820152845250509184019190840190620009e8565b98975050505050505050565b60006040828403121562000a9757600080fd5b6040516040810167ffffffffffffffff828210818311171562000abe5762000abe62000861565b81604052829350843591508082111562000ad757600080fd5b62000ae58683870162000984565b8352602085013591508082111562000afc57600080fd5b5062000b0b8582860162000984565b6020830152505092915050565b60006020828403121562000b2b57600080fd5b813567ffffffffffffffff8082111562000b4457600080fd5b9083019060a0828603121562000b5957600080fd5b62000b63620008a3565b82358281111562000b7357600080fd5b62000b818782860162000928565b82525060208301358281111562000b9757600080fd5b62000ba58782860162000928565b60208301525060408301358281111562000bbe57600080fd5b62000bcc8782860162000928565b60408301525060608301358281111562000be557600080fd5b62000bf38782860162000928565b60608301525060808301358281111562000c0c57600080fd5b62000c1a8782860162000a84565b60808301525095945050505050565b60005b8381101562000c4657818101518382015260200162000c2c565b8381111562000c56576000848401525b50505050565b6000815180845262000c7681602086016020860162000c29565b601f01601f19169290920160200192915050565b60208152600062000c9f602083018462000c5c565b9392505050565b60408152601a60408201527f436f6d706f736974696f6e20526f79616c7469657320666f7220000000000000606082015260806020820152600062000c9f608083018462000c5c565b60408152600560408201527f636f6d702d000000000000000000000000000000000000000000000000000000606082015260806020820152600062000c9f608083018462000c5c565b60408152601860408201527f5265636f7264696e6720526f79616c7469657320666f72200000000000000000606082015260806020820152600062000c9f608083018462000c5c565b60408152600460408201527f7265632d00000000000000000000000000000000000000000000000000000000606082015260806020820152600062000c9f608083018462000c5c565b6001600160a01b038416815260606020820152600062000dee606083018562000c5c565b828103604084015262000e02818562000c5c565b9695505050505050565b600081518084526020808501808196508360051b8101915082860160005b8581101562000e81578284038952815180516001600160a01b03168552858101518686015260409081015160609186018290529062000e6c8187018362000c5c565b9a87019a955050509084019060010162000e2a565b5091979650505050505050565b8581526001600160a01b038516602082015260c060408201526000845160a060c084015262000ec261016084018262000c5c565b9050602086015160bf19808584030160e086015262000ee2838362000c5c565b925060408801519150808584030161010086015262000f02838362000c5c565b925060608801519150808584030161012086015262000f22838362000c5c565b92506080880151915080858403016101408601525080516040835262000f4c604084018262000e0c565b905060208201519150828103602084015262000f69818362000e0c565b9250505062000f8360608401866001600160a01b03169052565b6001600160a01b038416608084015282810360a0840152600481527f736f6e670000000000000000000000000000000000000000000000000000000060208201526040810162000a78565b60006001600160a01b03808916835260c0602084015262000ff360c084018962000c5c565b838103604085015262001007818962000c5c565b968216606085015250938416608083015250911660a0909101529392505050565b600181811c908216806200103d57607f821691505b6020821081036200105e57634e487b7160e01b600052602260045260246000fd5b50919050565b634e487b7160e01b600052603260045260246000fd5b634e487b7160e01b600052601160045260246000fd5b6000816000190483118215151615620010ad57620010ad6200107a565b500290565b600060208284031215620010c557600080fd5b8151801515811462000c9f57600080fd5b600060208284031215620010e957600080fd5b815167ffffffffffffffff8111156200110157600080fd5b8201601f810184136200111357600080fd5b8051620011246200094b82620008fd565b8181528560208385010111156200113a57600080fd5b6200114d82602083016020860162000c29565b95945050505050565b60006001600160a01b03808816835260a060208401526200117b60a084018862000c5c565b9581166040840152606083019490945250911660809091015292915050565b600060018201620011af57620011af6200107a565b506001019056fe60806040523480156200001157600080fd5b506040516200164f3803806200164f833981016040819052620000349162000282565b60408051808201909152600b81526a31b7b6b837b9b4ba34b7b760a91b602082015283908383818160036200006a83826200039a565b5060046200007982826200039a565b5050600780546001600160a01b0319166001600160a01b038716179055506005620000a584826200039a565b50620000bb8468056bc75e2d63100000620000c8565b505050505050506200048d565b6001600160a01b038216620001235760405162461bcd60e51b815260206004820152601f60248201527f45524332303a206d696e7420746f20746865207a65726f206164647265737300604482015260640160405180910390fd5b806002600082825462000137919062000466565b90915550506001600160a01b038216600090815260208190526040812080548392906200016690849062000466565b90915550506040518181526001600160a01b038316906000907fddf252ad1be2c89b69c2b068fc378daa952ba7f163c4a11628f55a4df523b3ef9060200160405180910390a35050565b505050565b634e487b7160e01b600052604160045260246000fd5b600082601f830112620001dd57600080fd5b81516001600160401b0380821115620001fa57620001fa620001b5565b604051601f8301601f19908116603f01168101908282118183101715620002255762000225620001b5565b816040528381526020925086838588010111156200024257600080fd5b600091505b8382101562000266578582018301518183018401529082019062000247565b83821115620002785760008385830101525b9695505050505050565b6000806000606084860312156200029857600080fd5b83516001600160a01b0381168114620002b057600080fd5b60208501519093506001600160401b0380821115620002ce57600080fd5b620002dc87838801620001cb565b93506040860151915080821115620002f357600080fd5b506200030286828701620001cb565b9150509250925092565b600181811c908216806200032157607f821691505b6020821081036200034257634e487b7160e01b600052602260045260246000fd5b50919050565b601f821115620001b057600081815260208120601f850160051c81016020861015620003715750805b601f850160051c820191505b8181101562000392578281556001016200037d565b505050505050565b81516001600160401b03811115620003b657620003b6620001b5565b620003ce81620003c784546200030c565b8462000348565b602080601f831160018114620004065760008415620003ed5750858301515b600019600386901b1c1916600185901b17855562000392565b600085815260208120601f198616915b82811015620004375788860151825594840194600190910190840162000416565b5085821015620004565787850151600019600388901b60f8161c191681555b5050505050600190811b01905550565b600082198211156200048857634e487b7160e01b600052601160045260246000fd5b500190565b6111b2806200049d6000396000f3fe608060405234801561001057600080fd5b50600436106101365760003560e01c80635fe8e7cc116100b2578063a457c2d711610081578063dd62ed3e11610066578063dd62ed3e1461029b578063decfa258146102d4578063f0cc8b62146102e957600080fd5b8063a457c2d714610275578063a9059cbb1461028857600080fd5b80635fe8e7cc146102285780636ac5db191461023d57806370a082311461024457806395d89b411461026d57600080fd5b806323b872dd11610109578063313ce567116100ee578063313ce567146101db57806339509351146101ea57806356397c35146101fd57600080fd5b806323b872dd146101965780632a11ced0146101a957600080fd5b806304baa00b1461013b57806306fdde0314610159578063095ea7b31461016157806318160ddd14610184575b600080fd5b6101436102fc565b6040516101509190610e70565b60405180910390f35b61014361038a565b61017461016f366004610ee1565b61041c565b6040519015158152602001610150565b6002545b604051908152602001610150565b6101746101a4366004610f0b565b610434565b6101bc6101b7366004610f47565b6104b3565b604080516001600160a01b039093168352602083019190915201610150565b60405160128152602001610150565b6101746101f8366004610ee1565b6104eb565b600754610210906001600160a01b031681565b6040516001600160a01b039091168152602001610150565b61023061052a565b6040516101509190610f60565b6064610188565b610188610252366004610fb8565b6001600160a01b031660009081526020819052604090205490565b61014361059f565b610174610283366004610ee1565b6105ae565b610174610296366004610ee1565b610658565b6101886102a9366004610fda565b6001600160a01b03918216600090815260016020908152604080832093909416825291909152205490565b6102e76102e2366004610fb8565b6106c6565b005b600654610210906001600160a01b031681565b600580546103099061100d565b80601f01602080910402602001604051908101604052809291908181526020018280546103359061100d565b80156103825780601f1061035757610100808354040283529160200191610382565b820191906000526020600020905b81548152906001019060200180831161036557829003601f168201915b505050505081565b6060600380546103999061100d565b80601f01602080910402602001604051908101604052809291908181526020018280546103c59061100d565b80156104125780601f106103e757610100808354040283529160200191610412565b820191906000526020600020905b8154815290600101906020018083116103f557829003601f168201915b5050505050905090565b60003361042a81858561085b565b5060019392505050565b6000806104428585856109b3565b9050806104965760405162461bcd60e51b815260206004820152601360248201527f7472616e7366657246726f6d206661696c65640000000000000000000000000060448201526064015b60405180910390fd5b61049f856109cc565b6104a8846109cc565b506001949350505050565b600881815481106104c357600080fd5b6000918252602090912060029091020180546001909101546001600160a01b03909116915082565b3360008181526001602090815260408083206001600160a01b038716845290915281205490919061042a908290869061052590879061105d565b61085b565b60606008805480602002602001604051908101604052809291908181526020016000905b82821015610596576000848152602090819020604080518082019091526002850290910180546001600160a01b0316825260019081015482840152908352909201910161054e565b50505050905090565b6060600480546103999061100d565b3360008181526001602090815260408083206001600160a01b03871684529091528120549091908381101561064b5760405162461bcd60e51b815260206004820152602560248201527f45524332303a2064656372656173656420616c6c6f77616e63652062656c6f7760448201527f207a65726f000000000000000000000000000000000000000000000000000000606482015260840161048d565b6104a8828686840361085b565b6000806106658484610bb9565b9050806106b45760405162461bcd60e51b815260206004820152600f60248201527f7472616e73666572206661696c65640000000000000000000000000000000000604482015260640161048d565b6106bd336109cc565b61042a846109cc565b6007546001600160a01b0316336001600160a01b0316146107295760405162461bcd60e51b815260206004820152601b60248201527f6f6e6c79206c656467657220616c6c6f77656420746f2062696e640000000000604482015260640161048d565b6006546001600160a01b0316156107825760405162461bcd60e51b815260206004820152601560248201527f616c726561647920626f756e6420746f20736f6e670000000000000000000000604482015260640161048d565b6001600160a01b0381166107d85760405162461bcd60e51b815260206004820152600c60248201527f696e76616c696420736f6e670000000000000000000000000000000000000000604482015260640161048d565b6006805473ffffffffffffffffffffffffffffffffffffffff19166001600160a01b038381169182179092556007549091166000818152602081905260409020547f7436f71aa25c40311b9ae8ba3476987465977667616417c002b56e645ffbd73e9230916005604051610850959493929190611075565b60405180910390a150565b6001600160a01b0383166108d65760405162461bcd60e51b8152602060048201526024808201527f45524332303a20617070726f76652066726f6d20746865207a65726f2061646460448201527f7265737300000000000000000000000000000000000000000000000000000000606482015260840161048d565b6001600160a01b0382166109525760405162461bcd60e51b815260206004820152602260248201527f45524332303a20617070726f766520746f20746865207a65726f20616464726560448201527f7373000000000000000000000000000000000000000000000000000000000000606482015260840161048d565b6001600160a01b0383811660008181526001602090815260408083209487168084529482529182902085905590518481527f8c5be1e5ebec7d5bd14f71427d1e84f3dd0314c0f7b2291e5b200ac8c7c3b925910160405180910390a3505050565b6000336109c1858285610bc7565b6104a8858585610c59565b6001600160a01b0381166109dd5750565b6001600160a01b03811660009081526009602052604090205480158015610a045750600854155b80610a4e575080158015610a4e5750816001600160a01b03166008600081548110610a3157610a3161114f565b60009182526020909120600290910201546001600160a01b031614155b15610b68576001600160a01b0382811660008181526020818152604080832054815180830190925293815290810183815260088054600180820183559482905292517ff3f7a9fe364faab93b216da50a3214154f22a0a2b415b23a84c8169e8b636ee36002909402938401805473ffffffffffffffffffffffffffffffffffffffff19169190971617909555517ff3f7a9fe364faab93b216da50a3214154f22a0a2b415b23a84c8169e8b636ee49091015591549091610b0d91611165565b6001600160a01b0384166000818152600960209081526040918290209390935580519182529181018390527f10d110aaa7a117a90eed6e9ec3e96729ce1bc0a35c56b25fa189f0850999fbde910160405180910390a1505050565b6001600160a01b03821660009081526020818152604080832054600990925290912054600880549091908110610ba057610ba061114f565b9060005260206000209060020201600101819055505050565b60003361042a818585610c59565b6001600160a01b038381166000908152600160209081526040808320938616835292905220546000198114610c535781811015610c465760405162461bcd60e51b815260206004820152601d60248201527f45524332303a20696e73756666696369656e7420616c6c6f77616e6365000000604482015260640161048d565b610c53848484840361085b565b50505050565b6001600160a01b038316610cd55760405162461bcd60e51b815260206004820152602560248201527f45524332303a207472616e736665722066726f6d20746865207a65726f20616460448201527f6472657373000000000000000000000000000000000000000000000000000000606482015260840161048d565b6001600160a01b038216610d515760405162461bcd60e51b815260206004820152602360248201527f45524332303a207472616e7366657220746f20746865207a65726f206164647260448201527f6573730000000000000000000000000000000000000000000000000000000000606482015260840161048d565b6001600160a01b03831660009081526020819052604090205481811015610de05760405162461bcd60e51b815260206004820152602660248201527f45524332303a207472616e7366657220616d6f756e742065786365656473206260448201527f616c616e63650000000000000000000000000000000000000000000000000000606482015260840161048d565b6001600160a01b03808516600090815260208190526040808220858503905591851681529081208054849290610e1790849061105d565b92505081905550826001600160a01b0316846001600160a01b03167fddf252ad1be2c89b69c2b068fc378daa952ba7f163c4a11628f55a4df523b3ef84604051610e6391815260200190565b60405180910390a3610c53565b600060208083528351808285015260005b81811015610e9d57858101830151858201604001528201610e81565b81811115610eaf576000604083870101525b50601f01601f1916929092016040019392505050565b80356001600160a01b0381168114610edc57600080fd5b919050565b60008060408385031215610ef457600080fd5b610efd83610ec5565b946020939093013593505050565b600080600060608486031215610f2057600080fd5b610f2984610ec5565b9250610f3760208501610ec5565b9150604084013590509250925092565b600060208284031215610f5957600080fd5b5035919050565b602080825282518282018190526000919060409081850190868401855b82811015610fab57815180516001600160a01b03168552860151868501529284019290850190600101610f7d565b5091979650505050505050565b600060208284031215610fca57600080fd5b610fd382610ec5565b9392505050565b60008060408385031215610fed57600080fd5b610ff683610ec5565b915061100460208401610ec5565b90509250929050565b600181811c9082168061102157607f821691505b60208210810361104157634e487b7160e01b600052602260045260246000fd5b50919050565b634e487b7160e01b600052601160045260246000fd5b6000821982111561107057611070611047565b500190565b60006001600160a01b038088168352602081881681850152818716604085015285606085015260a0608085015260009150845482600182811c9150808316806110bf57607f831692505b84831081036110dc57634e487b7160e01b86526022600452602486fd5b60a0880183905260c088018180156110fb57600181146111115761113c565b60ff198616825284151560051b8201975061113c565b60008b81526020902060005b868110156111365781548482015290850190880161111d565b83019850505b50959d9c50505050505050505050505050565b634e487b7160e01b600052603260045260246000fd5b60008282101561117757611177611047565b50039056fea26469706673582212201bf13957ef01b318368a70b429244456ce917dd12febe477819dbb0dcf9af22064736f6c634300080f003360806040523480156200001157600080fd5b506040516200164d3803806200164d833981016040819052620000349162000280565b6040805180820190915260098152687265636f7264696e6760b81b6020820152839083838181600362000068838262000398565b50600462000077828262000398565b5050600780546001600160a01b0319166001600160a01b038716179055506005620000a3848262000398565b50620000b98468056bc75e2d63100000620000c6565b505050505050506200048b565b6001600160a01b038216620001215760405162461bcd60e51b815260206004820152601f60248201527f45524332303a206d696e7420746f20746865207a65726f206164647265737300604482015260640160405180910390fd5b806002600082825462000135919062000464565b90915550506001600160a01b038216600090815260208190526040812080548392906200016490849062000464565b90915550506040518181526001600160a01b038316906000907fddf252ad1be2c89b69c2b068fc378daa952ba7f163c4a11628f55a4df523b3ef9060200160405180910390a35050565b505050565b634e487b7160e01b600052604160045260246000fd5b600082601f830112620001db57600080fd5b81516001600160401b0380821115620001f857620001f8620001b3565b604051601f8301601f19908116603f01168101908282118183101715620002235762000223620001b3565b816040528381526020925086838588010111156200024057600080fd5b600091505b8382101562000264578582018301518183018401529082019062000245565b83821115620002765760008385830101525b9695505050505050565b6000806000606084860312156200029657600080fd5b83516001600160a01b0381168114620002ae57600080fd5b60208501519093506001600160401b0380821115620002cc57600080fd5b620002da87838801620001c9565b93506040860151915080821115620002f157600080fd5b506200030086828701620001c9565b9150509250925092565b600181811c908216806200031f57607f821691505b6020821081036200034057634e487b7160e01b600052602260045260246000fd5b50919050565b601f821115620001ae57600081815260208120601f850160051c810160208610156200036f5750805b601f850160051c820191505b8181101562000390578281556001016200037b565b505050505050565b81516001600160401b03811115620003b457620003b4620001b3565b620003cc81620003c584546200030a565b8462000346565b602080601f831160018114620004045760008415620003eb5750858301515b600019600386901b1c1916600185901b17855562000390565b600085815260208120601f198616915b82811015620004355788860151825594840194600190910190840162000414565b5085821015620004545787850151600019600388901b60f8161c191681555b5050505050600190811b01905550565b600082198211156200048657634e487b7160e01b600052601160045260246000fd5b500190565b6111b2806200049b6000396000f3fe608060405234801561001057600080fd5b50600436106101365760003560e01c80635fe8e7cc116100b2578063a457c2d711610081578063dd62ed3e11610066578063dd62ed3e1461029b578063decfa258146102d4578063f0cc8b62146102e957600080fd5b8063a457c2d714610275578063a9059cbb1461028857600080fd5b80635fe8e7cc146102285780636ac5db191461023d57806370a082311461024457806395d89b411461026d57600080fd5b806323b872dd11610109578063313ce567116100ee578063313ce567146101db57806339509351146101ea57806356397c35146101fd57600080fd5b806323b872dd146101965780632a11ced0146101a957600080fd5b806304baa00b1461013b57806306fdde0314610159578063095ea7b31461016157806318160ddd14610184575b600080fd5b6101436102fc565b6040516101509190610e70565b60405180910390f35b61014361038a565b61017461016f366004610ee1565b61041c565b6040519015158152602001610150565b6002545b604051908152602001610150565b6101746101a4366004610f0b565b610434565b6101bc6101b7366004610f47565b6104b3565b604080516001600160a01b039093168352602083019190915201610150565b60405160128152602001610150565b6101746101f8366004610ee1565b6104eb565b600754610210906001600160a01b031681565b6040516001600160a01b039091168152602001610150565b61023061052a565b6040516101509190610f60565b6064610188565b610188610252366004610fb8565b6001600160a01b031660009081526020819052604090205490565b61014361059f565b610174610283366004610ee1565b6105ae565b610174610296366004610ee1565b610658565b6101886102a9366004610fda565b6001600160a01b03918216600090815260016020908152604080832093909416825291909152205490565b6102e76102e2366004610fb8565b6106c6565b005b600654610210906001600160a01b031681565b600580546103099061100d565b80601f01602080910402602001604051908101604052809291908181526020018280546103359061100d565b80156103825780601f1061035757610100808354040283529160200191610382565b820191906000526020600020905b81548152906001019060200180831161036557829003601f168201915b505050505081565b6060600380546103999061100d565b80601f01602080910402602001604051908101604052809291908181526020018280546103c59061100d565b80156104125780601f106103e757610100808354040283529160200191610412565b820191906000526020600020905b8154815290600101906020018083116103f557829003601f168201915b5050505050905090565b60003361042a81858561085b565b5060019392505050565b6000806104428585856109b3565b9050806104965760405162461bcd60e51b815260206004820152601360248201527f7472616e7366657246726f6d206661696c65640000000000000000000000000060448201526064015b60405180910390fd5b61049f856109cc565b6104a8846109cc565b506001949350505050565b600881815481106104c357600080fd5b6000918252602090912060029091020180546001909101546001600160a01b03909116915082565b3360008181526001602090815260408083206001600160a01b038716845290915281205490919061042a908290869061052590879061105d565b61085b565b60606008805480602002602001604051908101604052809291908181526020016000905b82821015610596576000848152602090819020604080518082019091526002850290910180546001600160a01b0316825260019081015482840152908352909201910161054e565b50505050905090565b6060600480546103999061100d565b3360008181526001602090815260408083206001600160a01b03871684529091528120549091908381101561064b5760405162461bcd60e51b815260206004820152602560248201527f45524332303a2064656372656173656420616c6c6f77616e63652062656c6f7760448201527f207a65726f000000000000000000000000000000000000000000000000000000606482015260840161048d565b6104a8828686840361085b565b6000806106658484610bb9565b9050806106b45760405162461bcd60e51b815260206004820152600f60248201527f7472616e73666572206661696c65640000000000000000000000000000000000604482015260640161048d565b6106bd336109cc565b61042a846109cc565b6007546001600160a01b0316336001600160a01b0316146107295760405162461bcd60e51b815260206004820152601b60248201527f6f6e6c79206c656467657220616c6c6f77656420746f2062696e640000000000604482015260640161048d565b6006546001600160a01b0316156107825760405162461bcd60e51b815260206004820152601560248201527f616c726561647920626f756e6420746f20736f6e670000000000000000000000604482015260640161048d565b6001600160a01b0381166107d85760405162461bcd60e51b815260206004820152600c60248201527f696e76616c696420736f6e670000000000000000000000000000000000000000604482015260640161048d565b6006805473ffffffffffffffffffffffffffffffffffffffff19166001600160a01b038381169182179092556007549091166000818152602081905260409020547f7436f71aa25c40311b9ae8ba3476987465977667616417c002b56e645ffbd73e9230916005604051610850959493929190611075565b60405180910390a150565b6001600160a01b0383166108d65760405162461bcd60e51b8152602060048201526024808201527f45524332303a20617070726f76652066726f6d20746865207a65726f2061646460448201527f7265737300000000000000000000000000000000000000000000000000000000606482015260840161048d565b6001600160a01b0382166109525760405162461bcd60e51b815260206004820152602260248201527f45524332303a20617070726f766520746f20746865207a65726f20616464726560448201527f7373000000000000000000000000000000000000000000000000000000000000606482015260840161048d565b6001600160a01b0383811660008181526001602090815260408083209487168084529482529182902085905590518481527f8c5be1e5ebec7d5bd14f71427d1e84f3dd0314c0f7b2291e5b200ac8c7c3b925910160405180910390a3505050565b6000336109c1858285610bc7565b6104a8858585610c59565b6001600160a01b0381166109dd5750565b6001600160a01b03811660009081526009602052604090205480158015610a045750600854155b80610a4e575080158015610a4e5750816001600160a01b03166008600081548110610a3157610a3161114f565b60009182526020909120600290910201546001600160a01b031614155b15610b68576001600160a01b0382811660008181526020818152604080832054815180830190925293815290810183815260088054600180820183559482905292517ff3f7a9fe364faab93b216da50a3214154f22a0a2b415b23a84c8169e8b636ee36002909402938401805473ffffffffffffffffffffffffffffffffffffffff19169190971617909555517ff3f7a9fe364faab93b216da50a3214154f22a0a2b415b23a84c8169e8b636ee49091015591549091610b0d91611165565b6001600160a01b0384166000818152600960209081526040918290209390935580519182529181018390527f10d110aaa7a117a90eed6e9ec3e96729ce1bc0a35c56b25fa189f0850999fbde910160405180910390a1505050565b6001600160a01b03821660009081526020818152604080832054600990925290912054600880549091908110610ba057610ba061114f565b9060005260206000209060020201600101819055505050565b60003361042a818585610c59565b6001600160a01b038381166000908152600160209081526040808320938616835292905220546000198114610c535781811015610c465760405162461bcd60e51b815260206004820152601d60248201527f45524332303a20696e73756666696369656e7420616c6c6f77616e6365000000604482015260640161048d565b610c53848484840361085b565b50505050565b6001600160a01b038316610cd55760405162461bcd60e51b815260206004820152602560248201527f45524332303a207472616e736665722066726f6d20746865207a65726f20616460448201527f6472657373000000000000000000000000000000000000000000000000000000606482015260840161048d565b6001600160a01b038216610d515760405162461bcd60e51b815260206004820152602360248201527f45524332303a207472616e7366657220746f20746865207a65726f206164647260448201527f6573730000000000000000000000000000000000000000000000000000000000606482015260840161048d565b6001600160a01b03831660009081526020819052604090205481811015610de05760405162461bcd60e51b815260206004820152602660248201527f45524332303a207472616e7366657220616d6f756e742065786365656473206260448201527f616c616e63650000000000000000000000000000000000000000000000000000606482015260840161048d565b6001600160a01b03808516600090815260208190526040808220858503905591851681529081208054849290610e1790849061105d565b92505081905550826001600160a01b0316846001600160a01b03167fddf252ad1be2c89b69c2b068fc378daa952ba7f163c4a11628f55a4df523b3ef84604051610e6391815260200190565b60405180910390a3610c53565b600060208083528351808285015260005b81811015610e9d57858101830151858201604001528201610e81565b81811115610eaf576000604083870101525b50601f01601f1916929092016040019392505050565b80356001600160a01b0381168114610edc57600080fd5b919050565b60008060408385031215610ef457600080fd5b610efd83610ec5565b946020939093013593505050565b600080600060608486031215610f2057600080fd5b610f2984610ec5565b9250610f3760208501610ec5565b9150604084013590509250925092565b600060208284031215610f5957600080fd5b5035919050565b602080825282518282018190526000919060409081850190868401855b82811015610fab57815180516001600160a01b03168552860151868501529284019290850190600101610f7d565b5091979650505050505050565b600060208284031215610fca57600080fd5b610fd382610ec5565b9392505050565b60008060408385031215610fed57600080fd5b610ff683610ec5565b915061100460208401610ec5565b90509250929050565b600181811c9082168061102157607f821691505b60208210810361104157634e487b7160e01b600052602260045260246000fd5b50919050565b634e487b7160e01b600052601160045260246000fd5b6000821982111561107057611070611047565b500190565b60006001600160a01b038088168352602081881681850152818716604085015285606085015260a0608085015260009150845482600182811c9150808316806110bf57607f831692505b84831081036110dc57634e487b7160e01b86526022600452602486fd5b60a0880183905260c088018180156110fb57600181146111115761113c565b60ff198616825284151560051b8201975061113c565b60008b81526020902060005b868110156111365781548482015290850190880161111d565b83019850505b50959d9c50505050505050505050505050565b634e487b7160e01b600052603260045260246000fd5b60008282101561117757611177611047565b50039056fea264697066735822122085e2a1e25ebff23698a290a3bb814ce0c7bc820d4456df0730d9de32f0c5898364736f6c634300080f00336080604052600d805460ff191690553480156200001b57600080fd5b5060405162002568380380620025688339810160408190526200003e9162000780565b83516040850151600062000053838262000987565b50600162000062828262000987565b5050600780546001600160a01b038089166001600160a01b031992831617909255600880548784169083161790556009805492861692909116919091179055506060840151600a90620000b6908262000987565b506020840151600b90620000cb908262000987565b50600c8690556006620000df828262000987565b50620000ec858762000144565b8351600c5460608601516040517fa4dc6a40872929cd886a1af8564a739d88727a5d70fdc8947b5076e5ac53233093620001309390928a9289928992339262000a81565b60405180910390a150505050505062000b7f565b620001668282604051806020016040528060008152506200016a60201b60201c565b5050565b620001768383620001e6565b6200018560008484846200032e565b620001e15760405162461bcd60e51b815260206004820152603260248201526000805160206200254883398151915260448201527131b2b4bb32b91034b6b83632b6b2b73a32b960711b60648201526084015b60405180910390fd5b505050565b6001600160a01b0382166200023e5760405162461bcd60e51b815260206004820181905260248201527f4552433732313a206d696e7420746f20746865207a65726f20616464726573736044820152606401620001d8565b6000818152600260205260409020546001600160a01b031615620002a55760405162461bcd60e51b815260206004820152601c60248201527f4552433732313a20746f6b656e20616c7265616479206d696e746564000000006044820152606401620001d8565b6001600160a01b0382166000908152600360205260408120805460019290620002d090849062000ae6565b909155505060008181526002602052604080822080546001600160a01b0319166001600160a01b03861690811790915590518392907fddf252ad1be2c89b69c2b068fc378daa952ba7f163c4a11628f55a4df523b3ef908290a45050565b60006200034f846001600160a01b03166200048a60201b62000b451760201c565b156200047e57604051630a85bd0160e11b81526001600160a01b0385169063150b7a02906200038990339089908890889060040162000b0d565b6020604051808303816000875af1925050508015620003c7575060408051601f3d908101601f19168201909252620003c49181019062000b4c565b60015b62000463573d808015620003f8576040519150601f19603f3d011682016040523d82523d6000602084013e620003fd565b606091505b5080516000036200045b5760405162461bcd60e51b815260206004820152603260248201526000805160206200254883398151915260448201527131b2b4bb32b91034b6b83632b6b2b73a32b960711b6064820152608401620001d8565b805181602001fd5b6001600160e01b031916630a85bd0160e11b14905062000482565b5060015b949350505050565b6001600160a01b03163b151590565b80516001600160a01b0381168114620004b157600080fd5b919050565b634e487b7160e01b600052604160045260246000fd5b604051606081016001600160401b0381118282101715620004f157620004f1620004b6565b60405290565b60405160a081016001600160401b0381118282101715620004f157620004f1620004b6565b604051601f8201601f191681016001600160401b0381118282101715620005475762000547620004b6565b604052919050565b60005b838110156200056c57818101518382015260200162000552565b838111156200057c576000848401525b50505050565b600082601f8301126200059457600080fd5b81516001600160401b03811115620005b057620005b0620004b6565b620005c5601f8201601f19166020016200051c565b818152846020838601011115620005db57600080fd5b620004828260208301602087016200054f565b600082601f8301126200060057600080fd5b815160206001600160401b03808311156200061f576200061f620004b6565b8260051b620006308382016200051c565b93845285810183019383810190888611156200064b57600080fd5b84880192505b85831015620006e1578251848111156200066b5760008081fd5b88016060818b03601f1901811315620006845760008081fd5b6200068e620004cc565b6200069b88840162000499565b815260408381015189830152918301519187831115620006bb5760008081fd5b620006cb8d8a8587010162000582565b9082015284525050918401919084019062000651565b98975050505050505050565b6000604082840312156200070057600080fd5b604080519081016001600160401b038082118383101715620007265762000726620004b6565b8160405282935084519150808211156200073f57600080fd5b6200074d86838701620005ee565b835260208501519150808211156200076457600080fd5b506200077385828601620005ee565b6020830152505092915050565b60008060008060008060c087890312156200079a57600080fd5b86519550620007ac6020880162000499565b60408801519095506001600160401b0380821115620007ca57600080fd5b9088019060a0828b031215620007df57600080fd5b620007e9620004f7565b825182811115620007f957600080fd5b620008078c82860162000582565b8252506020830151828111156200081d57600080fd5b6200082b8c82860162000582565b6020830152506040830151828111156200084457600080fd5b620008528c82860162000582565b6040830152506060830151828111156200086b57600080fd5b620008798c82860162000582565b6060830152506080830151828111156200089257600080fd5b620008a08c828601620006ed565b6080830152509550620008b660608a0162000499565b9450620008c660808a0162000499565b935060a0890151915080821115620008dd57600080fd5b50620008ec89828a0162000582565b9150509295509295509295565b600181811c908216806200090e57607f821691505b6020821081036200092f57634e487b7160e01b600052602260045260246000fd5b50919050565b601f821115620001e157600081815260208120601f850160051c810160208610156200095e5750805b601f850160051c820191505b818110156200097f578281556001016200096a565b505050505050565b81516001600160401b03811115620009a357620009a3620004b6565b620009bb81620009b48454620008f9565b8462000935565b602080601f831160018114620009f35760008415620009da5750858301515b600019600386901b1c1916600185901b1785556200097f565b600085815260208120601f198616915b8281101562000a245788860151825594840194600190910190840162000a03565b508582101562000a435787850151600019600388901b60f8161c191681555b5050505050600190811b01905550565b6000815180845262000a6d8160208601602086016200054f565b601f01601f19169290920160200192915050565b60e08152600062000a9660e083018a62000a53565b6001600160a01b038981166020850152888116604085015287811660608501528616608084015260a0830185905282810360c084015262000ad8818562000a53565b9a9950505050505050505050565b6000821982111562000b0857634e487b7160e01b600052601160045260246000fd5b500190565b6001600160a01b038581168252841660208201526040810183905260806060820181905260009062000b429083018462000a53565b9695505050505050565b60006020828403121562000b5f57600080fd5b81516001600160e01b03198116811462000b7857600080fd5b9392505050565b6119b98062000b8f6000396000f3fe608060405234801561001057600080fd5b50600436106101a35760003560e01c806356397c35116100ee5780637403dcee11610097578063b88d4fde11610071578063b88d4fde1461033c578063c87b56dd1461034f578063e985e9c514610362578063efa545a91461039e57600080fd5b80637403dcee1461030e57806395d89b4114610321578063a22cb4651461032957600080fd5b80636605dfa7116100c85780636605dfa7146102d35780636b9241fc146102e657806370a08231146102fb57600080fd5b806356397c351461029c5780635655c6d9146102ad5780636352211e146102c057600080fd5b8063095ea7b31161015057806323b872dd1161012a57806323b872dd1461026e57806324c8c6981461028157806342842e0e1461028957600080fd5b8063095ea7b31461023557806317d70f7c1461024a578063186601ca1461026157600080fd5b806304f7b05c1161018157806304f7b05c146101ed57806306fdde0314610202578063081812fc1461020a57600080fd5b806301ffc9a7146101a857806303ee438c146101d057806304baa00b146101e5575b600080fd5b6101bb6101b6366004611323565b6103b1565b60405190151581526020015b60405180910390f35b6101d86103dc565b6040516101c79190611398565b6101d861046a565b6101f5610477565b6040516101c791906113ab565b6101d861050a565b61021d6102183660046113f8565b61059c565b6040516001600160a01b0390911681526020016101c7565b61024861024336600461142d565b6105c3565b005b610253600c5481565b6040519081526020016101c7565b600d546101bb9060ff1681565b61024861027c366004611457565b6106f9565b6101d8610780565b610248610297366004611457565b61078d565b6007546001600160a01b031661021d565b6102486102bb36600461153f565b6107a8565b61021d6102ce3660046113f8565b610926565b60085461021d906001600160a01b031681565b6040516303cfe93760e01b81526020016101c7565b6102536103093660046115a3565b61098b565b60075461021d906001600160a01b031681565b6101d8610a25565b6102486103373660046115be565b610a34565b61024861034a3660046115fa565b610a43565b6101d861035d3660046113f8565b610ad1565b6101bb610370366004611676565b6001600160a01b03918216600090815260056020908152604080832093909416825291909152205460ff1690565b60095461021d906001600160a01b031681565b60006001600160e01b031982166303cfe93760e01b14806103d657506103d682610b54565b92915050565b600a80546103e9906116a9565b80601f0160208091040260200160405190810160405280929190818152602001828054610415906116a9565b80156104625780601f1061043757610100808354040283529160200191610462565b820191906000526020600020905b81548152906001019060200180831161044557829003601f168201915b505050505081565b600680546103e9906116a9565b60408051600280825260608083018452926000929190602083019080368337505060085482519293506001600160a01b0316918391506000906104bc576104bc6116e3565b6001600160a01b0392831660209182029290920101526009548251911690829060019081106104ed576104ed6116e3565b6001600160a01b0390921660209283029190910190910152919050565b606060008054610519906116a9565b80601f0160208091040260200160405190810160405280929190818152602001828054610545906116a9565b80156105925780601f1061056757610100808354040283529160200191610592565b820191906000526020600020905b81548152906001019060200180831161057557829003601f168201915b5050505050905090565b60006105a782610bef565b506000908152600460205260409020546001600160a01b031690565b60006105ce82610926565b9050806001600160a01b0316836001600160a01b03160361065c5760405162461bcd60e51b815260206004820152602160248201527f4552433732313a20617070726f76616c20746f2063757272656e74206f776e6560448201527f720000000000000000000000000000000000000000000000000000000000000060648201526084015b60405180910390fd5b336001600160a01b038216148061067857506106788133610370565b6106ea5760405162461bcd60e51b815260206004820152603e60248201527f4552433732313a20617070726f76652063616c6c6572206973206e6f7420746f60448201527f6b656e206f776e6572206e6f7220617070726f76656420666f7220616c6c00006064820152608401610653565b6106f48383610c56565b505050565b6107033382610cd1565b6107755760405162461bcd60e51b815260206004820152602e60248201527f4552433732313a2063616c6c6572206973206e6f7420746f6b656e206f776e6560448201527f72206e6f7220617070726f7665640000000000000000000000000000000000006064820152608401610653565b6106f4838383610d50565b600b80546103e9906116a9565b6106f483838360405180602001604052806000815250610a43565b6000600a80546107b7906116a9565b80601f01602080910402602001604051908101604052809291908181526020018280546107e3906116a9565b80156108305780601f1061080557610100808354040283529160200191610830565b820191906000526020600020905b81548152906001019060200180831161081357829003601f168201915b505050505090506000600b8054610846906116a9565b80601f0160208091040260200160405190810160405280929190818152602001828054610872906116a9565b80156108bf5780601f10610894576101008083540402835291602001916108bf565b820191906000526020600020905b8154815290600101906020018083116108a257829003601f168201915b5050505050905083600a90816108d59190611747565b50600b6108e28482611747565b507f291ae74c7533db739130c6791815858c63b858e5f07ead9bbda4b1e49ac80803828286866040516109189493929190611807565b60405180910390a150505050565b6000818152600260205260408120546001600160a01b0316806103d65760405162461bcd60e51b815260206004820152601860248201527f4552433732313a20696e76616c696420746f6b656e20494400000000000000006044820152606401610653565b60006001600160a01b038216610a095760405162461bcd60e51b815260206004820152602960248201527f4552433732313a2061646472657373207a65726f206973206e6f74206120766160448201527f6c6964206f776e657200000000000000000000000000000000000000000000006064820152608401610653565b506001600160a01b031660009081526003602052604090205490565b606060018054610519906116a9565b610a3f338383610f2a565b5050565b610a4d3383610cd1565b610abf5760405162461bcd60e51b815260206004820152602e60248201527f4552433732313a2063616c6c6572206973206e6f7420746f6b656e206f776e6560448201527f72206e6f7220617070726f7665640000000000000000000000000000000000006064820152608401610653565b610acb84848484610ff8565b50505050565b6060610adc82610bef565b6000610af360408051602081019091526000815290565b90506000815111610b135760405180602001604052806000815250610b3e565b80610b1d84611081565b604051602001610b2e92919061185f565b6040516020818303038152906040525b9392505050565b6001600160a01b03163b151590565b60006001600160e01b031982167f80ac58cd000000000000000000000000000000000000000000000000000000001480610bb757506001600160e01b031982167f5b5e139f00000000000000000000000000000000000000000000000000000000145b806103d657507f01ffc9a7000000000000000000000000000000000000000000000000000000006001600160e01b03198316146103d6565b6000818152600260205260409020546001600160a01b0316610c535760405162461bcd60e51b815260206004820152601860248201527f4552433732313a20696e76616c696420746f6b656e20494400000000000000006044820152606401610653565b50565b6000818152600460205260409020805473ffffffffffffffffffffffffffffffffffffffff19166001600160a01b0384169081179091558190610c9882610926565b6001600160a01b03167f8c5be1e5ebec7d5bd14f71427d1e84f3dd0314c0f7b2291e5b200ac8c7c3b92560405160405180910390a45050565b600080610cdd83610926565b9050806001600160a01b0316846001600160a01b03161480610d2457506001600160a01b0380821660009081526005602090815260408083209388168352929052205460ff165b80610d485750836001600160a01b0316610d3d8461059c565b6001600160a01b0316145b949350505050565b826001600160a01b0316610d6382610926565b6001600160a01b031614610ddf5760405162461bcd60e51b815260206004820152602560248201527f4552433732313a207472616e736665722066726f6d20696e636f72726563742060448201527f6f776e65720000000000000000000000000000000000000000000000000000006064820152608401610653565b6001600160a01b038216610e5a5760405162461bcd60e51b8152602060048201526024808201527f4552433732313a207472616e7366657220746f20746865207a65726f2061646460448201527f72657373000000000000000000000000000000000000000000000000000000006064820152608401610653565b610e65600082610c56565b6001600160a01b0383166000908152600360205260408120805460019290610e8e9084906118a4565b90915550506001600160a01b0382166000908152600360205260408120805460019290610ebc9084906118bb565b9091555050600081815260026020526040808220805473ffffffffffffffffffffffffffffffffffffffff19166001600160a01b0386811691821790925591518493918716917fddf252ad1be2c89b69c2b068fc378daa952ba7f163c4a11628f55a4df523b3ef91a4505050565b816001600160a01b0316836001600160a01b031603610f8b5760405162461bcd60e51b815260206004820152601960248201527f4552433732313a20617070726f766520746f2063616c6c6572000000000000006044820152606401610653565b6001600160a01b03838116600081815260056020908152604080832094871680845294825291829020805460ff191686151590811790915591519182527f17307eab39ab6107e8899845ad3d59bd9653f200f220920489ca2b5937696c31910160405180910390a3505050565b611003848484610d50565b61100f848484846111b6565b610acb5760405162461bcd60e51b815260206004820152603260248201527f4552433732313a207472616e7366657220746f206e6f6e20455243373231526560448201527f63656976657220696d706c656d656e74657200000000000000000000000000006064820152608401610653565b6060816000036110c457505060408051808201909152600181527f3000000000000000000000000000000000000000000000000000000000000000602082015290565b8160005b81156110ee57806110d8816118d3565b91506110e79050600a83611902565b91506110c8565b60008167ffffffffffffffff81111561110957611109611493565b6040519080825280601f01601f191660200182016040528015611133576020820181803683370190505b5090505b8415610d48576111486001836118a4565b9150611155600a86611916565b6111609060306118bb565b60f81b818381518110611175576111756116e3565b60200101907effffffffffffffffffffffffffffffffffffffffffffffffffffffffffffff1916908160001a9053506111af600a86611902565b9450611137565b60006001600160a01b0384163b1561130257604051630a85bd0160e11b81526001600160a01b0385169063150b7a02906111fa90339089908890889060040161192a565b6020604051808303816000875af1925050508015611235575060408051601f3d908101601f1916820190925261123291810190611966565b60015b6112e8573d808015611263576040519150601f19603f3d011682016040523d82523d6000602084013e611268565b606091505b5080516000036112e05760405162461bcd60e51b815260206004820152603260248201527f4552433732313a207472616e7366657220746f206e6f6e20455243373231526560448201527f63656976657220696d706c656d656e74657200000000000000000000000000006064820152608401610653565b805181602001fd5b6001600160e01b031916630a85bd0160e11b149050610d48565b506001949350505050565b6001600160e01b031981168114610c5357600080fd5b60006020828403121561133557600080fd5b8135610b3e8161130d565b60005b8381101561135b578181015183820152602001611343565b83811115610acb5750506000910152565b60008151808452611384816020860160208601611340565b601f01601f19169290920160200192915050565b602081526000610b3e602083018461136c565b6020808252825182820181905260009190848201906040850190845b818110156113ec5783516001600160a01b0316835292840192918401916001016113c7565b50909695505050505050565b60006020828403121561140a57600080fd5b5035919050565b80356001600160a01b038116811461142857600080fd5b919050565b6000806040838503121561144057600080fd5b61144983611411565b946020939093013593505050565b60008060006060848603121561146c57600080fd5b61147584611411565b925061148360208501611411565b9150604084013590509250925092565b634e487b7160e01b600052604160045260246000fd5b600067ffffffffffffffff808411156114c4576114c4611493565b604051601f8501601f19908116603f011681019082821181831017156114ec576114ec611493565b8160405280935085815286868601111561150557600080fd5b858560208301376000602087830101525050509392505050565b600082601f83011261153057600080fd5b610b3e838335602085016114a9565b6000806040838503121561155257600080fd5b823567ffffffffffffffff8082111561156a57600080fd5b6115768683870161151f565b9350602085013591508082111561158c57600080fd5b506115998582860161151f565b9150509250929050565b6000602082840312156115b557600080fd5b610b3e82611411565b600080604083850312156115d157600080fd5b6115da83611411565b9150602083013580151581146115ef57600080fd5b809150509250929050565b6000806000806080858703121561161057600080fd5b61161985611411565b935061162760208601611411565b925060408501359150606085013567ffffffffffffffff81111561164a57600080fd5b8501601f8101871361165b57600080fd5b61166a878235602084016114a9565b91505092959194509250565b6000806040838503121561168957600080fd5b61169283611411565b91506116a060208401611411565b90509250929050565b600181811c908216806116bd57607f821691505b6020821081036116dd57634e487b7160e01b600052602260045260246000fd5b50919050565b634e487b7160e01b600052603260045260246000fd5b601f8211156106f457600081815260208120601f850160051c810160208610156117205750805b601f850160051c820191505b8181101561173f5782815560010161172c565b505050505050565b815167ffffffffffffffff81111561176157611761611493565b6117758161176f84546116a9565b846116f9565b602080601f8311600181146117aa57600084156117925750858301515b600019600386901b1c1916600185901b17855561173f565b600085815260208120601f198616915b828110156117d9578886015182559484019460019091019084016117ba565b50858210156117f75787850151600019600388901b60f8161c191681555b5050505050600190811b01905550565b60808152600061181a608083018761136c565b828103602084015261182c818761136c565b90508281036040840152611840818661136c565b90508281036060840152611854818561136c565b979650505050505050565b60008351611871818460208801611340565b835190830190611885818360208801611340565b01949350505050565b634e487b7160e01b600052601160045260246000fd5b6000828210156118b6576118b661188e565b500390565b600082198211156118ce576118ce61188e565b500190565b6000600182016118e5576118e561188e565b5060010190565b634e487b7160e01b600052601260045260246000fd5b600082611911576119116118ec565b500490565b600082611925576119256118ec565b500690565b60006001600160a01b0380871683528086166020840152508360408301526080606083015261195c608083018461136c565b9695505050505050565b60006020828403121561197857600080fd5b8151610b3e8161130d56fea26469706673582212202dcedce7af610a64642c8f0ac27464c7d8c090e110277e880207ec39995c4d5964736f6c634300080f00334552433732313a207472616e7366657220746f206e6f6e204552433732315265a26469706673582212208492b6843be7654d58b62b2163c2aa1fc0667bd56eecab19055178db625a1d2564736f6c634300080f0033",
    "linkReferences": {}
  },
  "methodIdentifiers": {
    "ledgerName()": "cf1f3dd7",
    "mintSong((string,string,string,string,((address,uint256,string)[],(address,uint256,string)[])))": "3619da47",
    "onERC721Received(address,address,uint256,bytes)": "150b7a02",
    "owner()": "8da5cb5b"
  },
  "id": 4
}