{
  "abi": [
    {
      "inputs": [
        {
          "internalType": "address",
          "name": "_ledger",
          "type": "address"
        },
        {
          "internalType": "string",
          "name": "_name",
          "type": "string"
        },
        {
          "internalType": "string",
          "name": "_symbol",
          "type": "string"
        }
      ],
      "stateMutability": "nonpayable",
      "type": "constructor"
    },
    {
      "anonymous": false,
      "inputs": [
        {
          "indexed": true,
          "internalType": "address",
          "name": "owner",
          "type": "address"
        },
        {
          "indexed": true,
          "internalType": "address",
          "name": "spender",
          "type": "address"
        },
        {
          "indexed": false,
          "internalType": "uint256",
          "name": "value",
          "type": "uint256"
        }
      ],
      "name": "Approval",
      "type": "event"
    },
    {
      "anonymous": false,
      "inputs": [
        {
          "indexed": false,
          "internalType": "address",
          "name": "holder",
          "type": "address"
        },
        {
          "indexed": false,
          "internalType": "uint256",
          "name": "amount",
          "type": "uint256"
        }
      ],
      "name": "HolderAdded",
      "type": "event"
    },
    {
      "anonymous": false,
      "inputs": [
        {
          "indexed": false,
          "internalType": "address",
          "name": "ledger",
          "type": "address"
        },
        {
          "indexed": false,
          "internalType": "address",
          "name": "token",
          "type": "address"
        },
        {
          "indexed": false,
          "internalType": "address",
          "name": "song",
          "type": "address"
        },
        {
          "indexed": false,
          "internalType": "uint256",
          "name": "amount",
          "type": "uint256"
        },
        {
          "indexed": false,
          "internalType": "string",
          "name": "kind",
          "type": "string"
        }
      ],
      "name": "SongBinding",
      "type": "event"
    },
    {
      "anonymous": false,
      "inputs": [
        {
          "indexed": true,
          "internalType": "address",
          "name": "from",
          "type": "address"
        },
        {
          "indexed": true,
          "internalType": "address",
          "name": "to",
          "type": "address"
        },
        {
          "indexed": false,
          "internalType": "uint256",
          "name": "value",
          "type": "uint256"
        }
      ],
      "name": "Transfer",
      "type": "event"
    },
    {
      "inputs": [
        {
          "internalType": "address",
          "name": "owner",
          "type": "address"
        },
        {
          "internalType": "address",
          "name": "spender",
          "type": "address"
        }
      ],
      "name": "allowance",
      "outputs": [
        {
          "internalType": "uint256",
          "name": "",
          "type": "uint256"
        }
      ],
      "stateMutability": "view",
      "type": "function"
    },
    {
      "inputs": [
        {
          "internalType": "address",
          "name": "spender",
          "type": "address"
        },
        {
          "internalType": "uint256",
          "name": "amount",
          "type": "uint256"
        }
      ],
      "name": "approve",
      "outputs": [
        {
          "internalType": "bool",
          "name": "",
          "type": "bool"
        }
      ],
      "stateMutability": "nonpayable",
      "type": "function"
    },
    {
      "inputs": [
        {
          "internalType": "address",
          "name": "account",
          "type": "address"
        }
      ],
      "name": "balanceOf",
      "outputs": [
        {
          "internalType": "uint256",
          "name": "",
          "type": "uint256"
        }
      ],
      "stateMutability": "view",
      "type": "function"
    },
    {
      "inputs": [
        {
          "internalType": "address",
          "name": "_song",
          "type": "address"
        }
      ],
      "name": "bindToSong",
      "outputs": [],
      "stateMutability": "nonpayable",
      "type": "function"
    },
    {
      "inputs": [],
      "name": "decimals",
      "outputs": [
        {
          "internalType": "uint8",
          "name": "",
          "type": "uint8"
        }
      ],
      "stateMutability": "view",
      "type": "function"
    },
    {
      "inputs": [
        {
          "internalType": "address",
          "name": "spender",
          "type": "address"
        },
        {
          "internalType": "uint256",
          "name": "subtractedValue",
          "type": "uint256"
        }
      ],
      "name": "decreaseAllowance",
      "outputs": [
        {
          "internalType": "bool",
          "name": "",
          "type": "bool"
        }
      ],
      "stateMutability": "nonpayable",
      "type": "function"
    },
    {
      "inputs": [],
      "name": "getHolders",
      "outputs": [
        {
          "components": [
            {
              "internalType": "address",
              "name": "holder",
              "type": "address"
            },
            {
              "internalType": "uint256",
              "name": "amount",
              "type": "uint256"
            }
          ],
          "internalType": "struct Balance[]",
          "name": "",
          "type": "tuple[]"
        }
      ],
      "stateMutability": "view",
      "type": "function"
    },
    {
      "inputs": [
        {
          "internalType": "uint256",
          "name": "",
          "type": "uint256"
        }
      ],
      "name": "holders",
      "outputs": [
        {
          "internalType": "address",
          "name": "holder",
          "type": "address"
        },
        {
          "internalType": "uint256",
          "name": "amount",
          "type": "uint256"
        }
      ],
      "stateMutability": "view",
      "type": "function"
    },
    {
      "inputs": [
        {
          "internalType": "address",
          "name": "spender",
          "type": "address"
        },
        {
          "internalType": "uint256",
          "name": "addedValue",
          "type": "uint256"
        }
      ],
      "name": "increaseAllowance",
      "outputs": [
        {
          "internalType": "bool",
          "name": "",
          "type": "bool"
        }
      ],
      "stateMutability": "nonpayable",
      "type": "function"
    },
    {
      "inputs": [],
      "name": "kind",
      "outputs": [
        {
          "internalType": "string",
          "name": "",
          "type": "string"
        }
      ],
      "stateMutability": "view",
      "type": "function"
    },
    {
      "inputs": [],
      "name": "ledger",
      "outputs": [
        {
          "internalType": "address",
          "name": "",
          "type": "address"
        }
      ],
      "stateMutability": "view",
      "type": "function"
    },
    {
      "inputs": [],
      "name": "max",
      "outputs": [
        {
          "internalType": "uint256",
          "name": "",
          "type": "uint256"
        }
      ],
      "stateMutability": "pure",
      "type": "function"
    },
    {
      "inputs": [],
      "name": "name",
      "outputs": [
        {
          "internalType": "string",
          "name": "",
          "type": "string"
        }
      ],
      "stateMutability": "view",
      "type": "function"
    },
    {
      "inputs": [],
      "name": "parentWork",
      "outputs": [
        {
          "internalType": "address",
          "name": "",
          "type": "address"
        }
      ],
      "stateMutability": "view",
      "type": "function"
    },
    {
      "inputs": [],
      "name": "symbol",
      "outputs": [
        {
          "internalType": "string",
          "name": "",
          "type": "string"
        }
      ],
      "stateMutability": "view",
      "type": "function"
    },
    {
      "inputs": [],
      "name": "totalSupply",
      "outputs": [
        {
          "internalType": "uint256",
          "name": "",
          "type": "uint256"
        }
      ],
      "stateMutability": "view",
      "type": "function"
    },
    {
      "inputs": [
        {
          "internalType": "address",
          "name": "to",
          "type": "address"
        },
        {
          "internalType": "uint256",
          "name": "amount",
          "type": "uint256"
        }
      ],
      "name": "transfer",
      "outputs": [
        {
          "internalType": "bool",
          "name": "",
          "type": "bool"
        }
      ],
      "stateMutability": "nonpayable",
      "type": "function"
    },
    {
      "inputs": [
        {
          "internalType": "address",
          "name": "from",
          "type": "address"
        },
        {
          "internalType": "address",
          "name": "to",
          "type": "address"
        },
        {
          "internalType": "uint256",
          "name": "amount",
          "type": "uint256"
        }
      ],
      "name": "transferFrom",
      "outputs": [
        {
          "internalType": "bool",
          "name": "",
          "type": "bool"
        }
      ],
      "stateMutability": "nonpayable",
      "type": "function"
    }
  ],
  "bytecode": {
    "object": "0x60806040523480156200001157600080fd5b506040516200164d3803806200164d833981016040819052620000349162000280565b6040805180820190915260098152687265636f7264696e6760b81b6020820152839083838181600362000068838262000398565b50600462000077828262000398565b5050600780546001600160a01b0319166001600160a01b038716179055506005620000a3848262000398565b50620000b98468056bc75e2d63100000620000c6565b505050505050506200048b565b6001600160a01b038216620001215760405162461bcd60e51b815260206004820152601f60248201527f45524332303a206d696e7420746f20746865207a65726f206164647265737300604482015260640160405180910390fd5b806002600082825462000135919062000464565b90915550506001600160a01b038216600090815260208190526040812080548392906200016490849062000464565b90915550506040518181526001600160a01b038316906000907fddf252ad1be2c89b69c2b068fc378daa952ba7f163c4a11628f55a4df523b3ef9060200160405180910390a35050565b505050565b634e487b7160e01b600052604160045260246000fd5b600082601f830112620001db57600080fd5b81516001600160401b0380821115620001f857620001f8620001b3565b604051601f8301601f19908116603f01168101908282118183101715620002235762000223620001b3565b816040528381526020925086838588010111156200024057600080fd5b600091505b8382101562000264578582018301518183018401529082019062000245565b83821115620002765760008385830101525b9695505050505050565b6000806000606084860312156200029657600080fd5b83516001600160a01b0381168114620002ae57600080fd5b60208501519093506001600160401b0380821115620002cc57600080fd5b620002da87838801620001c9565b93506040860151915080821115620002f157600080fd5b506200030086828701620001c9565b9150509250925092565b600181811c908216806200031f57607f821691505b6020821081036200034057634e487b7160e01b600052602260045260246000fd5b50919050565b601f821115620001ae57600081815260208120601f850160051c810160208610156200036f5750805b601f850160051c820191505b8181101562000390578281556001016200037b565b505050505050565b81516001600160401b03811115620003b457620003b4620001b3565b620003cc81620003c584546200030a565b8462000346565b602080601f831160018114620004045760008415620003eb5750858301515b600019600386901b1c1916600185901b17855562000390565b600085815260208120601f198616915b82811015620004355788860151825594840194600190910190840162000414565b5085821015620004545787850151600019600388901b60f8161c191681555b5050505050600190811b01905550565b600082198211156200048657634e487b7160e01b600052601160045260246000fd5b500190565b6111b2806200049b6000396000f3fe608060405234801561001057600080fd5b50600436106101365760003560e01c806356397c35116100b257806395d89b4111610081578063a9059cbb11610066578063a9059cbb1461029b578063dd62ed3e146102ae578063decfa258146102e757600080fd5b806395d89b4114610280578063a457c2d71461028857600080fd5b806356397c35146102285780635fe8e7cc1461023b5780636ac5db191461025057806370a082311461025757600080fd5b806318160ddd116101095780632a11ced0116100ee5780632a11ced0146101d4578063313ce56714610206578063395093511461021557600080fd5b806318160ddd146101af57806323b872dd146101c157600080fd5b806304baa00b1461013b57806306fdde0314610159578063095ea7b3146101615780631683252d14610184575b600080fd5b6101436102fc565b6040516101509190610e70565b60405180910390f35b61014361038a565b61017461016f366004610ee1565b61041c565b6040519015158152602001610150565b600654610197906001600160a01b031681565b6040516001600160a01b039091168152602001610150565b6002545b604051908152602001610150565b6101746101cf366004610f0b565b610434565b6101e76101e2366004610f47565b6104b3565b604080516001600160a01b039093168352602083019190915201610150565b60405160128152602001610150565b610174610223366004610ee1565b6104eb565b600754610197906001600160a01b031681565b61024361052a565b6040516101509190610f60565b60646101b3565b6101b3610265366004610fb8565b6001600160a01b031660009081526020819052604090205490565b61014361059f565b610174610296366004610ee1565b6105ae565b6101746102a9366004610ee1565b610658565b6101b36102bc366004610fda565b6001600160a01b03918216600090815260016020908152604080832093909416825291909152205490565b6102fa6102f5366004610fb8565b6106c6565b005b600580546103099061100d565b80601f01602080910402602001604051908101604052809291908181526020018280546103359061100d565b80156103825780601f1061035757610100808354040283529160200191610382565b820191906000526020600020905b81548152906001019060200180831161036557829003601f168201915b505050505081565b6060600380546103999061100d565b80601f01602080910402602001604051908101604052809291908181526020018280546103c59061100d565b80156104125780601f106103e757610100808354040283529160200191610412565b820191906000526020600020905b8154815290600101906020018083116103f557829003601f168201915b5050505050905090565b60003361042a81858561085b565b5060019392505050565b6000806104428585856109b3565b9050806104965760405162461bcd60e51b815260206004820152601360248201527f7472616e7366657246726f6d206661696c65640000000000000000000000000060448201526064015b60405180910390fd5b61049f856109cc565b6104a8846109cc565b506001949350505050565b600881815481106104c357600080fd5b6000918252602090912060029091020180546001909101546001600160a01b03909116915082565b3360008181526001602090815260408083206001600160a01b038716845290915281205490919061042a908290869061052590879061105d565b61085b565b60606008805480602002602001604051908101604052809291908181526020016000905b82821015610596576000848152602090819020604080518082019091526002850290910180546001600160a01b0316825260019081015482840152908352909201910161054e565b50505050905090565b6060600480546103999061100d565b3360008181526001602090815260408083206001600160a01b03871684529091528120549091908381101561064b5760405162461bcd60e51b815260206004820152602560248201527f45524332303a2064656372656173656420616c6c6f77616e63652062656c6f7760448201527f207a65726f000000000000000000000000000000000000000000000000000000606482015260840161048d565b6104a8828686840361085b565b6000806106658484610bb9565b9050806106b45760405162461bcd60e51b815260206004820152600f60248201527f7472616e73666572206661696c65640000000000000000000000000000000000604482015260640161048d565b6106bd336109cc565b61042a846109cc565b6007546001600160a01b0316336001600160a01b0316146107295760405162461bcd60e51b815260206004820152601b60248201527f6f6e6c79206c656467657220616c6c6f77656420746f2062696e640000000000604482015260640161048d565b6006546001600160a01b0316156107825760405162461bcd60e51b815260206004820152601560248201527f616c726561647920626f756e6420746f20736f6e670000000000000000000000604482015260640161048d565b6001600160a01b0381166107d85760405162461bcd60e51b815260206004820152600c60248201527f696e76616c696420736f6e670000000000000000000000000000000000000000604482015260640161048d565b6006805473ffffffffffffffffffffffffffffffffffffffff19166001600160a01b038381169182179092556007549091166000818152602081905260409020547f7436f71aa25c40311b9ae8ba3476987465977667616417c002b56e645ffbd73e9230916005604051610850959493929190611075565b60405180910390a150565b6001600160a01b0383166108d65760405162461bcd60e51b8152602060048201526024808201527f45524332303a20617070726f76652066726f6d20746865207a65726f2061646460448201527f7265737300000000000000000000000000000000000000000000000000000000606482015260840161048d565b6001600160a01b0382166109525760405162461bcd60e51b815260206004820152602260248201527f45524332303a20617070726f766520746f20746865207a65726f20616464726560448201527f7373000000000000000000000000000000000000000000000000000000000000606482015260840161048d565b6001600160a01b0383811660008181526001602090815260408083209487168084529482529182902085905590518481527f8c5be1e5ebec7d5bd14f71427d1e84f3dd0314c0f7b2291e5b200ac8c7c3b925910160405180910390a3505050565b6000336109c1858285610bc7565b6104a8858585610c59565b6001600160a01b0381166109dd5750565b6001600160a01b03811660009081526009602052604090205480158015610a045750600854155b80610a4e575080158015610a4e5750816001600160a01b03166008600081548110610a3157610a3161114f565b60009182526020909120600290910201546001600160a01b031614155b15610b68576001600160a01b0382811660008181526020818152604080832054815180830190925293815290810183815260088054600180820183559482905292517ff3f7a9fe364faab93b216da50a3214154f22a0a2b415b23a84c8169e8b636ee36002909402938401805473ffffffffffffffffffffffffffffffffffffffff19169190971617909555517ff3f7a9fe364faab93b216da50a3214154f22a0a2b415b23a84c8169e8b636ee49091015591549091610b0d91611165565b6001600160a01b0384166000818152600960209081526040918290209390935580519182529181018390527f10d110aaa7a117a90eed6e9ec3e96729ce1bc0a35c56b25fa189f0850999fbde910160405180910390a1505050565b6001600160a01b03821660009081526020818152604080832054600990925290912054600880549091908110610ba057610ba061114f565b9060005260206000209060020201600101819055505050565b60003361042a818585610c59565b6001600160a01b038381166000908152600160209081526040808320938616835292905220546000198114610c535781811015610c465760405162461bcd60e51b815260206004820152601d60248201527f45524332303a20696e73756666696369656e7420616c6c6f77616e6365000000604482015260640161048d565b610c53848484840361085b565b50505050565b6001600160a01b038316610cd55760405162461bcd60e51b815260206004820152602560248201527f45524332303a207472616e736665722066726f6d20746865207a65726f20616460448201527f6472657373000000000000000000000000000000000000000000000000000000606482015260840161048d565b6001600160a01b038216610d515760405162461bcd60e51b815260206004820152602360248201527f45524332303a207472616e7366657220746f20746865207a65726f206164647260448201527f6573730000000000000000000000000000000000000000000000000000000000606482015260840161048d565b6001600160a01b03831660009081526020819052604090205481811015610de05760405162461bcd60e51b815260206004820152602660248201527f45524332303a207472616e7366657220616d6f756e742065786365656473206260448201527f616c616e63650000000000000000000000000000000000000000000000000000606482015260840161048d565b6001600160a01b03808516600090815260208190526040808220858503905591851681529081208054849290610e1790849061105d565b92505081905550826001600160a01b0316846001600160a01b03167fddf252ad1be2c89b69c2b068fc378daa952ba7f163c4a11628f55a4df523b3ef84604051610e6391815260200190565b60405180910390a3610c53565b600060208083528351808285015260005b81811015610e9d57858101830151858201604001528201610e81565b81811115610eaf576000604083870101525b50601f01601f1916929092016040019392505050565b80356001600160a01b0381168114610edc57600080fd5b919050565b60008060408385031215610ef457600080fd5b610efd83610ec5565b946020939093013593505050565b600080600060608486031215610f2057600080fd5b610f2984610ec5565b9250610f3760208501610ec5565b9150604084013590509250925092565b600060208284031215610f5957600080fd5b5035919050565b602080825282518282018190526000919060409081850190868401855b82811015610fab57815180516001600160a01b03168552860151868501529284019290850190600101610f7d565b5091979650505050505050565b600060208284031215610fca57600080fd5b610fd382610ec5565b9392505050565b60008060408385031215610fed57600080fd5b610ff683610ec5565b915061100460208401610ec5565b90509250929050565b600181811c9082168061102157607f821691505b60208210810361104157634e487b7160e01b600052602260045260246000fd5b50919050565b634e487b7160e01b600052601160045260246000fd5b6000821982111561107057611070611047565b500190565b60006001600160a01b038088168352602081881681850152818716604085015285606085015260a0608085015260009150845482600182811c9150808316806110bf57607f831692505b84831081036110dc57634e487b7160e01b86526022600452602486fd5b60a0880183905260c088018180156110fb57600181146111115761113c565b60ff198616825284151560051b8201975061113c565b60008b81526020902060005b868110156111365781548482015290850190880161111d565b83019850505b50959d9c50505050505050505050505050565b634e487b7160e01b600052603260045260246000fd5b60008282101561117757611177611047565b50039056fea26469706673582212205c1cf90f57a1edfc28de96d0a91438e2f5494d0986dfcc30ba4ca55c477405e564736f6c634300080f0033",
    "linkReferences": {}
  },
  "methodIdentifiers": {
    "allowance(address,address)": "dd62ed3e",
    "approve(address,uint256)": "095ea7b3",
    "balanceOf(address)": "70a08231",
    "bindToSong(address)": "decfa258",
    "decimals()": "313ce567",
    "decreaseAllowance(address,uint256)": "a457c2d7",
    "getHolders()": "5fe8e7cc",
    "holders(uint256)": "2a11ced0",
    "increaseAllowance(address,uint256)": "39509351",
    "kind()": "04baa00b",
    "ledger()": "56397c35",
    "max()": "6ac5db19",
    "name()": "06fdde03",
    "parentWork()": "1683252d",
    "symbol()": "95d89b41",
    "totalSupply()": "18160ddd",
    "transfer(address,uint256)": "a9059cbb",
    "transferFrom(address,address,uint256)": "23b872dd"
  },
  "id": 2
}