{
  "abi": [
    {
      "inputs": [
        {
          "internalType": "uint256",
          "name": "_tokenId",
          "type": "uint256"
        },
        {
          "internalType": "address",
          "name": "_songLedger",
          "type": "address"
        },
        {
          "components": [
            {
              "internalType": "string",
              "name": "shortName",
              "type": "string"
            },
            {
              "internalType": "string",
              "name": "fileHash",
              "type": "string"
            },
            {
              "internalType": "string",
              "name": "symbol",
              "type": "string"
            },
            {
              "internalType": "string",
              "name": "metadataUri",
              "type": "string"
            },
            {
              "components": [
                {
                  "components": [
                    {
                      "internalType": "address",
                      "name": "holderAddress",
                      "type": "address"
                    },
                    {
                      "internalType": "uint256",
                      "name": "amount",
                      "type": "uint256"
                    },
                    {
                      "internalType": "string",
                      "name": "memo",
                      "type": "string"
                    }
                  ],
                  "internalType": "struct SplitTarget[]",
                  "name": "compSplits",
                  "type": "tuple[]"
                },
                {
                  "components": [
                    {
                      "internalType": "address",
                      "name": "holderAddress",
                      "type": "address"
                    },
                    {
                      "internalType": "uint256",
                      "name": "amount",
                      "type": "uint256"
                    },
                    {
                      "internalType": "string",
                      "name": "memo",
                      "type": "string"
                    }
                  ],
                  "internalType": "struct SplitTarget[]",
                  "name": "recSplits",
                  "type": "tuple[]"
                }
              ],
              "internalType": "struct SplitInfo",
              "name": "splits",
              "type": "tuple"
            }
          ],
          "internalType": "struct SongMintingParams",
          "name": "_params",
          "type": "tuple"
        },
        {
          "internalType": "address",
          "name": "_compAddress",
          "type": "address"
        },
        {
          "internalType": "address",
          "name": "_recAddress",
          "type": "address"
        },
        {
          "internalType": "string",
          "name": "_kind",
          "type": "string"
        }
      ],
      "stateMutability": "nonpayable",
      "type": "constructor"
    },
    {
      "anonymous": false,
      "inputs": [
        {
          "indexed": true,
          "internalType": "address",
          "name": "owner",
          "type": "address"
        },
        {
          "indexed": true,
          "internalType": "address",
          "name": "approved",
          "type": "address"
        },
        {
          "indexed": true,
          "internalType": "uint256",
          "name": "tokenId",
          "type": "uint256"
        }
      ],
      "name": "Approval",
      "type": "event"
    },
    {
      "anonymous": false,
      "inputs": [
        {
          "indexed": true,
          "internalType": "address",
          "name": "owner",
          "type": "address"
        },
        {
          "indexed": true,
          "internalType": "address",
          "name": "operator",
          "type": "address"
        },
        {
          "indexed": false,
          "internalType": "bool",
          "name": "approved",
          "type": "bool"
        }
      ],
      "name": "ApprovalForAll",
      "type": "event"
    },
    {
      "anonymous": false,
      "inputs": [
        {
          "indexed": false,
          "internalType": "address",
          "name": "byAddress",
          "type": "address"
        },
        {
          "indexed": false,
          "internalType": "string",
          "name": "oldURI",
          "type": "string"
        },
        {
          "indexed": false,
          "internalType": "string",
          "name": "oldFileHash",
          "type": "string"
        },
        {
          "indexed": false,
          "internalType": "string",
          "name": "newURI",
          "type": "string"
        },
        {
          "indexed": false,
          "internalType": "string",
          "name": "newFileHash",
          "type": "string"
        }
      ],
      "name": "MetadaDataChanged",
      "type": "event"
    },
    {
      "anonymous": false,
      "inputs": [
        {
          "indexed": false,
          "internalType": "string",
          "name": "oldUri",
          "type": "string"
        },
        {
          "indexed": false,
          "internalType": "string",
          "name": "oldFileHash",
          "type": "string"
        },
        {
          "indexed": false,
          "internalType": "string",
          "name": "newUri",
          "type": "string"
        },
        {
          "indexed": false,
          "internalType": "string",
          "name": "newFileHash",
          "type": "string"
        }
      ],
      "name": "MetadataChanged",
      "type": "event"
    },
    {
      "anonymous": false,
      "inputs": [
        {
          "indexed": false,
          "internalType": "string",
          "name": "abbvName",
          "type": "string"
        },
        {
          "indexed": false,
          "internalType": "address",
          "name": "ledger",
          "type": "address"
        },
        {
          "indexed": false,
          "internalType": "address",
          "name": "compToken",
          "type": "address"
        },
        {
          "indexed": false,
          "internalType": "address",
          "name": "recToken",
          "type": "address"
        },
        {
          "indexed": false,
          "internalType": "address",
          "name": "creator",
          "type": "address"
        },
        {
          "indexed": false,
          "internalType": "uint256",
          "name": "tokenId",
          "type": "uint256"
        },
        {
          "indexed": false,
          "internalType": "string",
          "name": "metadataUri",
          "type": "string"
        }
      ],
      "name": "Minted",
      "type": "event"
    },
    {
      "anonymous": false,
      "inputs": [
        {
          "indexed": true,
          "internalType": "address",
          "name": "from",
          "type": "address"
        },
        {
          "indexed": true,
          "internalType": "address",
          "name": "to",
          "type": "address"
        },
        {
          "indexed": true,
          "internalType": "uint256",
          "name": "tokenId",
          "type": "uint256"
        }
      ],
      "name": "Transfer",
      "type": "event"
    },
    {
      "inputs": [],
      "name": "activated",
      "outputs": [
        {
          "internalType": "bool",
          "name": "",
          "type": "bool"
        }
      ],
      "stateMutability": "view",
      "type": "function"
    },
    {
      "inputs": [
        {
          "internalType": "address",
          "name": "to",
          "type": "address"
        },
        {
          "internalType": "uint256",
          "name": "tokenId",
          "type": "uint256"
        }
      ],
      "name": "approve",
      "outputs": [],
      "stateMutability": "nonpayable",
      "type": "function"
    },
    {
      "inputs": [
        {
          "internalType": "address",
          "name": "owner",
          "type": "address"
        }
      ],
      "name": "balanceOf",
      "outputs": [
        {
          "internalType": "uint256",
          "name": "",
          "type": "uint256"
        }
      ],
      "stateMutability": "view",
      "type": "function"
    },
    {
      "inputs": [
        {
          "internalType": "string",
          "name": "_newURI",
          "type": "string"
        },
        {
          "internalType": "string",
          "name": "_newFileHash",
          "type": "string"
        }
      ],
      "name": "changeMetadataURI",
      "outputs": [],
      "stateMutability": "nonpayable",
      "type": "function"
    },
    {
      "inputs": [],
      "name": "compToken",
      "outputs": [
        {
          "internalType": "address",
          "name": "",
          "type": "address"
        }
      ],
      "stateMutability": "view",
      "type": "function"
    },
    {
      "inputs": [],
      "name": "fileHash",
      "outputs": [
        {
          "internalType": "string",
          "name": "",
          "type": "string"
        }
      ],
      "stateMutability": "view",
      "type": "function"
    },
    {
      "inputs": [
        {
          "internalType": "uint256",
          "name": "tokenId",
          "type": "uint256"
        }
      ],
      "name": "getApproved",
      "outputs": [
        {
          "internalType": "address",
          "name": "",
          "type": "address"
        }
      ],
      "stateMutability": "view",
      "type": "function"
    },
    {
      "inputs": [],
      "name": "getInterfaceId",
      "outputs": [
        {
          "internalType": "bytes4",
          "name": "",
          "type": "bytes4"
        }
      ],
      "stateMutability": "pure",
      "type": "function"
    },
    {
      "inputs": [
        {
          "internalType": "address",
          "name": "owner",
          "type": "address"
        },
        {
          "internalType": "address",
          "name": "operator",
          "type": "address"
        }
      ],
      "name": "isApprovedForAll",
      "outputs": [
        {
          "internalType": "bool",
          "name": "",
          "type": "bool"
        }
      ],
      "stateMutability": "view",
      "type": "function"
    },
    {
      "inputs": [],
      "name": "kind",
      "outputs": [
        {
          "internalType": "string",
          "name": "",
          "type": "string"
        }
      ],
      "stateMutability": "view",
      "type": "function"
    },
    {
      "inputs": [],
      "name": "ledger",
      "outputs": [
        {
          "internalType": "address",
          "name": "",
          "type": "address"
        }
      ],
      "stateMutability": "view",
      "type": "function"
    },
    {
      "inputs": [],
      "name": "metadataURI",
      "outputs": [
        {
          "internalType": "string",
          "name": "",
          "type": "string"
        }
      ],
      "stateMutability": "view",
      "type": "function"
    },
    {
      "inputs": [],
      "name": "name",
      "outputs": [
        {
          "internalType": "string",
          "name": "",
          "type": "string"
        }
      ],
      "stateMutability": "view",
      "type": "function"
    },
    {
      "inputs": [
        {
          "internalType": "uint256",
          "name": "tokenId",
          "type": "uint256"
        }
      ],
      "name": "ownerOf",
      "outputs": [
        {
          "internalType": "address",
          "name": "",
          "type": "address"
        }
      ],
      "stateMutability": "view",
      "type": "function"
    },
    {
      "inputs": [],
      "name": "recToken",
      "outputs": [
        {
          "internalType": "address",
          "name": "",
          "type": "address"
        }
      ],
      "stateMutability": "view",
      "type": "function"
    },
    {
      "inputs": [],
      "name": "royaltyPortionTokens",
      "outputs": [
        {
          "internalType": "address[]",
          "name": "",
          "type": "address[]"
        }
      ],
      "stateMutability": "view",
      "type": "function"
    },
    {
      "inputs": [
        {
          "internalType": "address",
          "name": "from",
          "type": "address"
        },
        {
          "internalType": "address",
          "name": "to",
          "type": "address"
        },
        {
          "internalType": "uint256",
          "name": "tokenId",
          "type": "uint256"
        }
      ],
      "name": "safeTransferFrom",
      "outputs": [],
      "stateMutability": "nonpayable",
      "type": "function"
    },
    {
      "inputs": [
        {
          "internalType": "address",
          "name": "from",
          "type": "address"
        },
        {
          "internalType": "address",
          "name": "to",
          "type": "address"
        },
        {
          "internalType": "uint256",
          "name": "tokenId",
          "type": "uint256"
        },
        {
          "internalType": "bytes",
          "name": "data",
          "type": "bytes"
        }
      ],
      "name": "safeTransferFrom",
      "outputs": [],
      "stateMutability": "nonpayable",
      "type": "function"
    },
    {
      "inputs": [
        {
          "internalType": "address",
          "name": "operator",
          "type": "address"
        },
        {
          "internalType": "bool",
          "name": "approved",
          "type": "bool"
        }
      ],
      "name": "setApprovalForAll",
      "outputs": [],
      "stateMutability": "nonpayable",
      "type": "function"
    },
    {
      "inputs": [],
      "name": "songLedger",
      "outputs": [
        {
          "internalType": "address",
          "name": "",
          "type": "address"
        }
      ],
      "stateMutability": "view",
      "type": "function"
    },
    {
      "inputs": [
        {
          "internalType": "bytes4",
          "name": "interfaceId",
          "type": "bytes4"
        }
      ],
      "name": "supportsInterface",
      "outputs": [
        {
          "internalType": "bool",
          "name": "",
          "type": "bool"
        }
      ],
      "stateMutability": "view",
      "type": "function"
    },
    {
      "inputs": [],
      "name": "symbol",
      "outputs": [
        {
          "internalType": "string",
          "name": "",
          "type": "string"
        }
      ],
      "stateMutability": "view",
      "type": "function"
    },
    {
      "inputs": [],
      "name": "tokenId",
      "outputs": [
        {
          "internalType": "uint256",
          "name": "",
          "type": "uint256"
        }
      ],
      "stateMutability": "view",
      "type": "function"
    },
    {
      "inputs": [
        {
          "internalType": "uint256",
          "name": "tokenId",
          "type": "uint256"
        }
      ],
      "name": "tokenURI",
      "outputs": [
        {
          "internalType": "string",
          "name": "",
          "type": "string"
        }
      ],
      "stateMutability": "view",
      "type": "function"
    },
    {
      "inputs": [
        {
          "internalType": "address",
          "name": "from",
          "type": "address"
        },
        {
          "internalType": "address",
          "name": "to",
          "type": "address"
        },
        {
          "internalType": "uint256",
          "name": "tokenId",
          "type": "uint256"
        }
      ],
      "name": "transferFrom",
      "outputs": [],
      "stateMutability": "nonpayable",
      "type": "function"
    }
  ],
  "bytecode": {
    "object": "0x6080604052600d805460ff191690553480156200001b57600080fd5b5060405162002568380380620025688339810160408190526200003e9162000780565b83516040850151600062000053838262000987565b50600162000062828262000987565b5050600780546001600160a01b038089166001600160a01b031992831617909255600880548784169083161790556009805492861692909116919091179055506060840151600a90620000b6908262000987565b506020840151600b90620000cb908262000987565b50600c8690556006620000df828262000987565b50620000ec858762000144565b8351600c5460608601516040517fa4dc6a40872929cd886a1af8564a739d88727a5d70fdc8947b5076e5ac53233093620001309390928a9289928992339262000a81565b60405180910390a150505050505062000b7f565b620001668282604051806020016040528060008152506200016a60201b60201c565b5050565b620001768383620001e6565b6200018560008484846200032e565b620001e15760405162461bcd60e51b815260206004820152603260248201526000805160206200254883398151915260448201527131b2b4bb32b91034b6b83632b6b2b73a32b960711b60648201526084015b60405180910390fd5b505050565b6001600160a01b0382166200023e5760405162461bcd60e51b815260206004820181905260248201527f4552433732313a206d696e7420746f20746865207a65726f20616464726573736044820152606401620001d8565b6000818152600260205260409020546001600160a01b031615620002a55760405162461bcd60e51b815260206004820152601c60248201527f4552433732313a20746f6b656e20616c7265616479206d696e746564000000006044820152606401620001d8565b6001600160a01b0382166000908152600360205260408120805460019290620002d090849062000ae6565b909155505060008181526002602052604080822080546001600160a01b0319166001600160a01b03861690811790915590518392907fddf252ad1be2c89b69c2b068fc378daa952ba7f163c4a11628f55a4df523b3ef908290a45050565b60006200034f846001600160a01b03166200048a60201b62000b451760201c565b156200047e57604051630a85bd0160e11b81526001600160a01b0385169063150b7a02906200038990339089908890889060040162000b0d565b6020604051808303816000875af1925050508015620003c7575060408051601f3d908101601f19168201909252620003c49181019062000b4c565b60015b62000463573d808015620003f8576040519150601f19603f3d011682016040523d82523d6000602084013e620003fd565b606091505b5080516000036200045b5760405162461bcd60e51b815260206004820152603260248201526000805160206200254883398151915260448201527131b2b4bb32b91034b6b83632b6b2b73a32b960711b6064820152608401620001d8565b805181602001fd5b6001600160e01b031916630a85bd0160e11b14905062000482565b5060015b949350505050565b6001600160a01b03163b151590565b80516001600160a01b0381168114620004b157600080fd5b919050565b634e487b7160e01b600052604160045260246000fd5b604051606081016001600160401b0381118282101715620004f157620004f1620004b6565b60405290565b60405160a081016001600160401b0381118282101715620004f157620004f1620004b6565b604051601f8201601f191681016001600160401b0381118282101715620005475762000547620004b6565b604052919050565b60005b838110156200056c57818101518382015260200162000552565b838111156200057c576000848401525b50505050565b600082601f8301126200059457600080fd5b81516001600160401b03811115620005b057620005b0620004b6565b620005c5601f8201601f19166020016200051c565b818152846020838601011115620005db57600080fd5b620004828260208301602087016200054f565b600082601f8301126200060057600080fd5b815160206001600160401b03808311156200061f576200061f620004b6565b8260051b620006308382016200051c565b93845285810183019383810190888611156200064b57600080fd5b84880192505b85831015620006e1578251848111156200066b5760008081fd5b88016060818b03601f1901811315620006845760008081fd5b6200068e620004cc565b6200069b88840162000499565b815260408381015189830152918301519187831115620006bb5760008081fd5b620006cb8d8a8587010162000582565b9082015284525050918401919084019062000651565b98975050505050505050565b6000604082840312156200070057600080fd5b604080519081016001600160401b038082118383101715620007265762000726620004b6565b8160405282935084519150808211156200073f57600080fd5b6200074d86838701620005ee565b835260208501519150808211156200076457600080fd5b506200077385828601620005ee565b6020830152505092915050565b60008060008060008060c087890312156200079a57600080fd5b86519550620007ac6020880162000499565b60408801519095506001600160401b0380821115620007ca57600080fd5b9088019060a0828b031215620007df57600080fd5b620007e9620004f7565b825182811115620007f957600080fd5b620008078c82860162000582565b8252506020830151828111156200081d57600080fd5b6200082b8c82860162000582565b6020830152506040830151828111156200084457600080fd5b620008528c82860162000582565b6040830152506060830151828111156200086b57600080fd5b620008798c82860162000582565b6060830152506080830151828111156200089257600080fd5b620008a08c828601620006ed565b6080830152509550620008b660608a0162000499565b9450620008c660808a0162000499565b935060a0890151915080821115620008dd57600080fd5b50620008ec89828a0162000582565b9150509295509295509295565b600181811c908216806200090e57607f821691505b6020821081036200092f57634e487b7160e01b600052602260045260246000fd5b50919050565b601f821115620001e157600081815260208120601f850160051c810160208610156200095e5750805b601f850160051c820191505b818110156200097f578281556001016200096a565b505050505050565b81516001600160401b03811115620009a357620009a3620004b6565b620009bb81620009b48454620008f9565b8462000935565b602080601f831160018114620009f35760008415620009da5750858301515b600019600386901b1c1916600185901b1785556200097f565b600085815260208120601f198616915b8281101562000a245788860151825594840194600190910190840162000a03565b508582101562000a435787850151600019600388901b60f8161c191681555b5050505050600190811b01905550565b6000815180845262000a6d8160208601602086016200054f565b601f01601f19169290920160200192915050565b60e08152600062000a9660e083018a62000a53565b6001600160a01b038981166020850152888116604085015287811660608501528616608084015260a0830185905282810360c084015262000ad8818562000a53565b9a9950505050505050505050565b6000821982111562000b0857634e487b7160e01b600052601160045260246000fd5b500190565b6001600160a01b038581168252841660208201526040810183905260806060820181905260009062000b429083018462000a53565b9695505050505050565b60006020828403121562000b5f57600080fd5b81516001600160e01b03198116811462000b7857600080fd5b9392505050565b6119b98062000b8f6000396000f3fe608060405234801561001057600080fd5b50600436106101a35760003560e01c806356397c35116100ee5780637403dcee11610097578063b88d4fde11610071578063b88d4fde1461033c578063c87b56dd1461034f578063e985e9c514610362578063efa545a91461039e57600080fd5b80637403dcee1461030e57806395d89b4114610321578063a22cb4651461032957600080fd5b80636605dfa7116100c85780636605dfa7146102d35780636b9241fc146102e657806370a08231146102fb57600080fd5b806356397c351461029c5780635655c6d9146102ad5780636352211e146102c057600080fd5b8063095ea7b31161015057806323b872dd1161012a57806323b872dd1461026e57806324c8c6981461028157806342842e0e1461028957600080fd5b8063095ea7b31461023557806317d70f7c1461024a578063186601ca1461026157600080fd5b806304f7b05c1161018157806304f7b05c146101ed57806306fdde0314610202578063081812fc1461020a57600080fd5b806301ffc9a7146101a857806303ee438c146101d057806304baa00b146101e5575b600080fd5b6101bb6101b6366004611323565b6103b1565b60405190151581526020015b60405180910390f35b6101d86103dc565b6040516101c79190611398565b6101d861046a565b6101f5610477565b6040516101c791906113ab565b6101d861050a565b61021d6102183660046113f8565b61059c565b6040516001600160a01b0390911681526020016101c7565b61024861024336600461142d565b6105c3565b005b610253600c5481565b6040519081526020016101c7565b600d546101bb9060ff1681565b61024861027c366004611457565b6106f9565b6101d8610780565b610248610297366004611457565b61078d565b6007546001600160a01b031661021d565b6102486102bb36600461153f565b6107a8565b61021d6102ce3660046113f8565b610926565b60085461021d906001600160a01b031681565b6040516303cfe93760e01b81526020016101c7565b6102536103093660046115a3565b61098b565b60075461021d906001600160a01b031681565b6101d8610a25565b6102486103373660046115be565b610a34565b61024861034a3660046115fa565b610a43565b6101d861035d3660046113f8565b610ad1565b6101bb610370366004611676565b6001600160a01b03918216600090815260056020908152604080832093909416825291909152205460ff1690565b60095461021d906001600160a01b031681565b60006001600160e01b031982166303cfe93760e01b14806103d657506103d682610b54565b92915050565b600a80546103e9906116a9565b80601f0160208091040260200160405190810160405280929190818152602001828054610415906116a9565b80156104625780601f1061043757610100808354040283529160200191610462565b820191906000526020600020905b81548152906001019060200180831161044557829003601f168201915b505050505081565b600680546103e9906116a9565b60408051600280825260608083018452926000929190602083019080368337505060085482519293506001600160a01b0316918391506000906104bc576104bc6116e3565b6001600160a01b0392831660209182029290920101526009548251911690829060019081106104ed576104ed6116e3565b6001600160a01b0390921660209283029190910190910152919050565b606060008054610519906116a9565b80601f0160208091040260200160405190810160405280929190818152602001828054610545906116a9565b80156105925780601f1061056757610100808354040283529160200191610592565b820191906000526020600020905b81548152906001019060200180831161057557829003601f168201915b5050505050905090565b60006105a782610bef565b506000908152600460205260409020546001600160a01b031690565b60006105ce82610926565b9050806001600160a01b0316836001600160a01b03160361065c5760405162461bcd60e51b815260206004820152602160248201527f4552433732313a20617070726f76616c20746f2063757272656e74206f776e6560448201527f720000000000000000000000000000000000000000000000000000000000000060648201526084015b60405180910390fd5b336001600160a01b038216148061067857506106788133610370565b6106ea5760405162461bcd60e51b815260206004820152603e60248201527f4552433732313a20617070726f76652063616c6c6572206973206e6f7420746f60448201527f6b656e206f776e6572206e6f7220617070726f76656420666f7220616c6c00006064820152608401610653565b6106f48383610c56565b505050565b6107033382610cd1565b6107755760405162461bcd60e51b815260206004820152602e60248201527f4552433732313a2063616c6c6572206973206e6f7420746f6b656e206f776e6560448201527f72206e6f7220617070726f7665640000000000000000000000000000000000006064820152608401610653565b6106f4838383610d50565b600b80546103e9906116a9565b6106f483838360405180602001604052806000815250610a43565b6000600a80546107b7906116a9565b80601f01602080910402602001604051908101604052809291908181526020018280546107e3906116a9565b80156108305780601f1061080557610100808354040283529160200191610830565b820191906000526020600020905b81548152906001019060200180831161081357829003601f168201915b505050505090506000600b8054610846906116a9565b80601f0160208091040260200160405190810160405280929190818152602001828054610872906116a9565b80156108bf5780601f10610894576101008083540402835291602001916108bf565b820191906000526020600020905b8154815290600101906020018083116108a257829003601f168201915b5050505050905083600a90816108d59190611747565b50600b6108e28482611747565b507f291ae74c7533db739130c6791815858c63b858e5f07ead9bbda4b1e49ac80803828286866040516109189493929190611807565b60405180910390a150505050565b6000818152600260205260408120546001600160a01b0316806103d65760405162461bcd60e51b815260206004820152601860248201527f4552433732313a20696e76616c696420746f6b656e20494400000000000000006044820152606401610653565b60006001600160a01b038216610a095760405162461bcd60e51b815260206004820152602960248201527f4552433732313a2061646472657373207a65726f206973206e6f74206120766160448201527f6c6964206f776e657200000000000000000000000000000000000000000000006064820152608401610653565b506001600160a01b031660009081526003602052604090205490565b606060018054610519906116a9565b610a3f338383610f2a565b5050565b610a4d3383610cd1565b610abf5760405162461bcd60e51b815260206004820152602e60248201527f4552433732313a2063616c6c6572206973206e6f7420746f6b656e206f776e6560448201527f72206e6f7220617070726f7665640000000000000000000000000000000000006064820152608401610653565b610acb84848484610ff8565b50505050565b6060610adc82610bef565b6000610af360408051602081019091526000815290565b90506000815111610b135760405180602001604052806000815250610b3e565b80610b1d84611081565b604051602001610b2e92919061185f565b6040516020818303038152906040525b9392505050565b6001600160a01b03163b151590565b60006001600160e01b031982167f80ac58cd000000000000000000000000000000000000000000000000000000001480610bb757506001600160e01b031982167f5b5e139f00000000000000000000000000000000000000000000000000000000145b806103d657507f01ffc9a7000000000000000000000000000000000000000000000000000000006001600160e01b03198316146103d6565b6000818152600260205260409020546001600160a01b0316610c535760405162461bcd60e51b815260206004820152601860248201527f4552433732313a20696e76616c696420746f6b656e20494400000000000000006044820152606401610653565b50565b6000818152600460205260409020805473ffffffffffffffffffffffffffffffffffffffff19166001600160a01b0384169081179091558190610c9882610926565b6001600160a01b03167f8c5be1e5ebec7d5bd14f71427d1e84f3dd0314c0f7b2291e5b200ac8c7c3b92560405160405180910390a45050565b600080610cdd83610926565b9050806001600160a01b0316846001600160a01b03161480610d2457506001600160a01b0380821660009081526005602090815260408083209388168352929052205460ff165b80610d485750836001600160a01b0316610d3d8461059c565b6001600160a01b0316145b949350505050565b826001600160a01b0316610d6382610926565b6001600160a01b031614610ddf5760405162461bcd60e51b815260206004820152602560248201527f4552433732313a207472616e736665722066726f6d20696e636f72726563742060448201527f6f776e65720000000000000000000000000000000000000000000000000000006064820152608401610653565b6001600160a01b038216610e5a5760405162461bcd60e51b8152602060048201526024808201527f4552433732313a207472616e7366657220746f20746865207a65726f2061646460448201527f72657373000000000000000000000000000000000000000000000000000000006064820152608401610653565b610e65600082610c56565b6001600160a01b0383166000908152600360205260408120805460019290610e8e9084906118a4565b90915550506001600160a01b0382166000908152600360205260408120805460019290610ebc9084906118bb565b9091555050600081815260026020526040808220805473ffffffffffffffffffffffffffffffffffffffff19166001600160a01b0386811691821790925591518493918716917fddf252ad1be2c89b69c2b068fc378daa952ba7f163c4a11628f55a4df523b3ef91a4505050565b816001600160a01b0316836001600160a01b031603610f8b5760405162461bcd60e51b815260206004820152601960248201527f4552433732313a20617070726f766520746f2063616c6c6572000000000000006044820152606401610653565b6001600160a01b03838116600081815260056020908152604080832094871680845294825291829020805460ff191686151590811790915591519182527f17307eab39ab6107e8899845ad3d59bd9653f200f220920489ca2b5937696c31910160405180910390a3505050565b611003848484610d50565b61100f848484846111b6565b610acb5760405162461bcd60e51b815260206004820152603260248201527f4552433732313a207472616e7366657220746f206e6f6e20455243373231526560448201527f63656976657220696d706c656d656e74657200000000000000000000000000006064820152608401610653565b6060816000036110c457505060408051808201909152600181527f3000000000000000000000000000000000000000000000000000000000000000602082015290565b8160005b81156110ee57806110d8816118d3565b91506110e79050600a83611902565b91506110c8565b60008167ffffffffffffffff81111561110957611109611493565b6040519080825280601f01601f191660200182016040528015611133576020820181803683370190505b5090505b8415610d48576111486001836118a4565b9150611155600a86611916565b6111609060306118bb565b60f81b818381518110611175576111756116e3565b60200101907effffffffffffffffffffffffffffffffffffffffffffffffffffffffffffff1916908160001a9053506111af600a86611902565b9450611137565b60006001600160a01b0384163b1561130257604051630a85bd0160e11b81526001600160a01b0385169063150b7a02906111fa90339089908890889060040161192a565b6020604051808303816000875af1925050508015611235575060408051601f3d908101601f1916820190925261123291810190611966565b60015b6112e8573d808015611263576040519150601f19603f3d011682016040523d82523d6000602084013e611268565b606091505b5080516000036112e05760405162461bcd60e51b815260206004820152603260248201527f4552433732313a207472616e7366657220746f206e6f6e20455243373231526560448201527f63656976657220696d706c656d656e74657200000000000000000000000000006064820152608401610653565b805181602001fd5b6001600160e01b031916630a85bd0160e11b149050610d48565b506001949350505050565b6001600160e01b031981168114610c5357600080fd5b60006020828403121561133557600080fd5b8135610b3e8161130d565b60005b8381101561135b578181015183820152602001611343565b83811115610acb5750506000910152565b60008151808452611384816020860160208601611340565b601f01601f19169290920160200192915050565b602081526000610b3e602083018461136c565b6020808252825182820181905260009190848201906040850190845b818110156113ec5783516001600160a01b0316835292840192918401916001016113c7565b50909695505050505050565b60006020828403121561140a57600080fd5b5035919050565b80356001600160a01b038116811461142857600080fd5b919050565b6000806040838503121561144057600080fd5b61144983611411565b946020939093013593505050565b60008060006060848603121561146c57600080fd5b61147584611411565b925061148360208501611411565b9150604084013590509250925092565b634e487b7160e01b600052604160045260246000fd5b600067ffffffffffffffff808411156114c4576114c4611493565b604051601f8501601f19908116603f011681019082821181831017156114ec576114ec611493565b8160405280935085815286868601111561150557600080fd5b858560208301376000602087830101525050509392505050565b600082601f83011261153057600080fd5b610b3e838335602085016114a9565b6000806040838503121561155257600080fd5b823567ffffffffffffffff8082111561156a57600080fd5b6115768683870161151f565b9350602085013591508082111561158c57600080fd5b506115998582860161151f565b9150509250929050565b6000602082840312156115b557600080fd5b610b3e82611411565b600080604083850312156115d157600080fd5b6115da83611411565b9150602083013580151581146115ef57600080fd5b809150509250929050565b6000806000806080858703121561161057600080fd5b61161985611411565b935061162760208601611411565b925060408501359150606085013567ffffffffffffffff81111561164a57600080fd5b8501601f8101871361165b57600080fd5b61166a878235602084016114a9565b91505092959194509250565b6000806040838503121561168957600080fd5b61169283611411565b91506116a060208401611411565b90509250929050565b600181811c908216806116bd57607f821691505b6020821081036116dd57634e487b7160e01b600052602260045260246000fd5b50919050565b634e487b7160e01b600052603260045260246000fd5b601f8211156106f457600081815260208120601f850160051c810160208610156117205750805b601f850160051c820191505b8181101561173f5782815560010161172c565b505050505050565b815167ffffffffffffffff81111561176157611761611493565b6117758161176f84546116a9565b846116f9565b602080601f8311600181146117aa57600084156117925750858301515b600019600386901b1c1916600185901b17855561173f565b600085815260208120601f198616915b828110156117d9578886015182559484019460019091019084016117ba565b50858210156117f75787850151600019600388901b60f8161c191681555b5050505050600190811b01905550565b60808152600061181a608083018761136c565b828103602084015261182c818761136c565b90508281036040840152611840818661136c565b90508281036060840152611854818561136c565b979650505050505050565b60008351611871818460208801611340565b835190830190611885818360208801611340565b01949350505050565b634e487b7160e01b600052601160045260246000fd5b6000828210156118b6576118b661188e565b500390565b600082198211156118ce576118ce61188e565b500190565b6000600182016118e5576118e561188e565b5060010190565b634e487b7160e01b600052601260045260246000fd5b600082611911576119116118ec565b500490565b600082611925576119256118ec565b500690565b60006001600160a01b0380871683528086166020840152508360408301526080606083015261195c608083018461136c565b9695505050505050565b60006020828403121561197857600080fd5b8151610b3e8161130d56fea26469706673582212202dcedce7af610a64642c8f0ac27464c7d8c090e110277e880207ec39995c4d5964736f6c634300080f00334552433732313a207472616e7366657220746f206e6f6e204552433732315265",
    "linkReferences": {}
  },
  "methodIdentifiers": {
    "activated()": "186601ca",
    "approve(address,uint256)": "095ea7b3",
    "balanceOf(address)": "70a08231",
    "changeMetadataURI(string,string)": "5655c6d9",
    "compToken()": "6605dfa7",
    "fileHash()": "24c8c698",
    "getApproved(uint256)": "081812fc",
    "getInterfaceId()": "6b9241fc",
    "isApprovedForAll(address,address)": "e985e9c5",
    "kind()": "04baa00b",
    "ledger()": "56397c35",
    "metadataURI()": "03ee438c",
    "name()": "06fdde03",
    "ownerOf(uint256)": "6352211e",
    "recToken()": "efa545a9",
    "royaltyPortionTokens()": "04f7b05c",
    "safeTransferFrom(address,address,uint256)": "42842e0e",
    "safeTransferFrom(address,address,uint256,bytes)": "b88d4fde",
    "setApprovalForAll(address,bool)": "a22cb465",
    "songLedger()": "7403dcee",
    "supportsInterface(bytes4)": "01ffc9a7",
    "symbol()": "95d89b41",
    "tokenId()": "17d70f7c",
    "tokenURI(uint256)": "c87b56dd",
    "transferFrom(address,address,uint256)": "23b872dd"
  },
  "id": 9
}