{
  "abi": [
    {
      "inputs": [
        {
          "internalType": "string",
          "name": "newGreeting",
          "type": "string"
        }
      ],
      "stateMutability": "nonpayable",
      "type": "constructor"
    },
    {
      "inputs": [],
      "name": "BadGm",
      "type": "error"
    },
    {
      "anonymous": false,
      "inputs": [],
      "name": "GMEverybodyGM",
      "type": "event"
    },
    {
      "inputs": [
        {
          "internalType": "string",
          "name": "myGm",
          "type": "string"
        }
      ],
      "name": "gm",
      "outputs": [
        {
          "internalType": "string",
          "name": "greet",
          "type": "string"
        }
      ],
      "stateMutability": "nonpayable",
      "type": "function"
    },
    {
      "inputs": [],
      "name": "greeting",
      "outputs": [
        {
          "internalType": "string",
          "name": "",
          "type": "string"
        }
      ],
      "stateMutability": "view",
      "type": "function"
    },
    {
      "inputs": [],
      "name": "owner",
      "outputs": [
        {
          "internalType": "address",
          "name": "",
          "type": "address"
        }
      ],
      "stateMutability": "view",
      "type": "function"
    },
    {
      "inputs": [
        {
          "internalType": "string",
          "name": "newGreeting",
          "type": "string"
        }
      ],
      "name": "setGreeting",
      "outputs": [],
      "stateMutability": "nonpayable",
      "type": "function"
    }
  ],
  "bytecode": {
    "object": "0x608060405234801561001057600080fd5b5060405161080d38038061080d83398101604081905261002f9161006a565b600061003b82826101c2565b5050600180546001600160a01b03191633179055610281565b634e487b7160e01b600052604160045260246000fd5b6000602080838503121561007d57600080fd5b82516001600160401b038082111561009457600080fd5b818501915085601f8301126100a857600080fd5b8151818111156100ba576100ba610054565b604051601f8201601f19908116603f011681019083821181831017156100e2576100e2610054565b8160405282815288868487010111156100fa57600080fd5b600093505b8284101561011c57848401860151818501870152928501926100ff565b8284111561012d5760008684830101525b98975050505050505050565b600181811c9082168061014d57607f821691505b60208210810361016d57634e487b7160e01b600052602260045260246000fd5b50919050565b601f8211156101bd57600081815260208120601f850160051c8101602086101561019a5750805b601f850160051c820191505b818110156101b9578281556001016101a6565b5050505b505050565b81516001600160401b038111156101db576101db610054565b6101ef816101e98454610139565b84610173565b602080601f831160018114610224576000841561020c5750858301515b600019600386901b1c1916600185901b1785556101b9565b600085815260208120601f198616915b8281101561025357888601518255948401946001909101908401610234565b50858210156102715787850151600019600388901b60f8161c191681555b5050505050600190811b01905550565b61057d806102906000396000f3fe608060405234801561001057600080fd5b506004361061004c5760003560e01c80638da5cb5b14610051578063a41368621461009b578063d8686ecb146100b0578063ef690cc0146100d0575b600080fd5b6001546100719073ffffffffffffffffffffffffffffffffffffffff1681565b60405173ffffffffffffffffffffffffffffffffffffffff90911681526020015b60405180910390f35b6100ae6100a93660046102ce565b6100d8565b005b6100c36100be3660046102ce565b6100e8565b60405161009291906103af565b6100c361022a565b60006100e4828261046b565b5050565b6060600080546100f7906103e2565b80601f0160208091040260200160405190810160405280929190818152602001828054610123906103e2565b80156101705780601f1061014557610100808354040283529160200191610170565b820191906000526020600020905b81548152906001019060200180831161015357829003601f168201915b5050505050905080604051602001610188919061052b565b60405160208183030381529060405280519060200120826040516020016101af919061052b565b60405160208183030381529060405280519060200120146101fc576040517f16ebb6e700000000000000000000000000000000000000000000000000000000815260040160405180910390fd5b6040517fcf4ecd81e6b1cf31de894fdad74686df3a36197952c6b5a5706b9cc219164cc490600090a1919050565b60008054610237906103e2565b80601f0160208091040260200160405190810160405280929190818152602001828054610263906103e2565b80156102b05780601f10610285576101008083540402835291602001916102b0565b820191906000526020600020905b81548152906001019060200180831161029357829003601f168201915b505050505081565b634e487b7160e01b600052604160045260246000fd5b6000602082840312156102e057600080fd5b813567ffffffffffffffff808211156102f857600080fd5b818401915084601f83011261030c57600080fd5b81358181111561031e5761031e6102b8565b604051601f8201601f19908116603f01168101908382118183101715610346576103466102b8565b8160405282815287602084870101111561035f57600080fd5b826020860160208301376000928101602001929092525095945050505050565b60005b8381101561039a578181015183820152602001610382565b838111156103a9576000848401525b50505050565b60208152600082518060208401526103ce81604085016020870161037f565b601f01601f19169190910160400192915050565b600181811c908216806103f657607f821691505b60208210810361041657634e487b7160e01b600052602260045260246000fd5b50919050565b601f82111561046657600081815260208120601f850160051c810160208610156104435750805b601f850160051c820191505b818110156104625782815560010161044f565b5050505b505050565b815167ffffffffffffffff811115610485576104856102b8565b6104998161049384546103e2565b8461041c565b602080601f8311600181146104ce57600084156104b65750858301515b600019600386901b1c1916600185901b178555610462565b600085815260208120601f198616915b828110156104fd578886015182559484019460019091019084016104de565b508582101561051b5787850151600019600388901b60f8161c191681555b5050505050600190811b01905550565b6000825161053d81846020870161037f565b919091019291505056fea2646970667358221220277597c770ab7e96de9d92acc0c54d35230648da200f0aea3b6067df32b0126464736f6c634300080f0033",
    "linkReferences": {}
  },
  "methodIdentifiers": {
    "gm(string)": "d8686ecb",
    "greeting()": "ef690cc0",
    "owner()": "8da5cb5b",
    "setGreeting(string)": "a4136862"
  },
  "id": 1
}