{
  "abi": [
    {
      "inputs": [
        {
          "components": [
            {
              "internalType": "string",
              "name": "shortName",
              "type": "string"
            },
            {
              "internalType": "string",
              "name": "fileHash",
              "type": "string"
            },
            {
              "internalType": "string",
              "name": "symbol",
              "type": "string"
            },
            {
              "internalType": "string",
              "name": "metadataUri",
              "type": "string"
            },
            {
              "components": [
                {
                  "components": [
                    {
                      "internalType": "address",
                      "name": "holderAddress",
                      "type": "address"
                    },
                    {
                      "internalType": "uint256",
                      "name": "amount",
                      "type": "uint256"
                    },
                    {
                      "internalType": "string",
                      "name": "memo",
                      "type": "string"
                    }
                  ],
                  "internalType": "struct SplitTarget[]",
                  "name": "compSplits",
                  "type": "tuple[]"
                },
                {
                  "components": [
                    {
                      "internalType": "address",
                      "name": "holderAddress",
                      "type": "address"
                    },
                    {
                      "internalType": "uint256",
                      "name": "amount",
                      "type": "uint256"
                    },
                    {
                      "internalType": "string",
                      "name": "memo",
                      "type": "string"
                    }
                  ],
                  "internalType": "struct SplitTarget[]",
                  "name": "recSplits",
                  "type": "tuple[]"
                }
              ],
              "internalType": "struct SplitInfo",
              "name": "splits",
              "type": "tuple"
            }
          ],
          "internalType": "struct SongMintingParams",
          "name": "_params",
          "type": "tuple"
        }
      ],
      "name": "mintSong",
      "outputs": [],
      "stateMutability": "nonpayable",
      "type": "function"
    },
    {
      "inputs": [
        {
          "internalType": "address",
          "name": "",
          "type": "address"
        },
        {
          "internalType": "address",
          "name": "",
          "type": "address"
        },
        {
          "internalType": "uint256",
          "name": "",
          "type": "uint256"
        },
        {
          "internalType": "bytes",
          "name": "",
          "type": "bytes"
        }
      ],
      "name": "onERC721Received",
      "outputs": [
        {
          "internalType": "bytes4",
          "name": "",
          "type": "bytes4"
        }
      ],
      "stateMutability": "pure",
      "type": "function"
    }
  ],
  "bytecode": {
    "object": "0x608060405234801561001057600080fd5b50615a36806100206000396000f3fe60806040523480156200001157600080fd5b50600436106200003a5760003560e01c8063150b7a02146200003f5780633619da4714620000af575b600080fd5b6200007a62000050366004620002bf565b7f150b7a020000000000000000000000000000000000000000000000000000000095945050505050565b6040517fffffffff00000000000000000000000000000000000000000000000000000000909116815260200160405180910390f35b620000c6620000c036600462000623565b620000c8565b005b600030604051620000d99062000278565b6001600160a01b0390911681526060602082018190526008908201527f534f4e47434f4d50000000000000000000000000000000000000000000000000608082015260a0604082018190526004908201527f434f4d500000000000000000000000000000000000000000000000000000000060c082015260e001604051809103906000f08015801562000170573d6000803e3d6000fd5b509050600030604051620001849062000286565b6001600160a01b0390911681526060602082018190526007908201527f534f4e4752454300000000000000000000000000000000000000000000000000608082015260a0604082018190526003908201527f524543000000000000000000000000000000000000000000000000000000000060c082015260e001604051809103906000f0801580156200021b573d6000803e3d6000fd5b5090506200022d600080546001019055565b6000805430858585604051620002439062000294565b6200025395949392919062000806565b604051809103906000f08015801562000270573d6000803e3d6000fd5b505050505050565b6115aa806200094783390190565b6115a88062001ef183390190565b612568806200349983390190565b80356001600160a01b0381168114620002ba57600080fd5b919050565b600080600080600060808688031215620002d857600080fd5b620002e386620002a2565b9450620002f360208701620002a2565b935060408601359250606086013567ffffffffffffffff808211156200031857600080fd5b818801915088601f8301126200032d57600080fd5b8135818111156200033d57600080fd5b8960208285010111156200035057600080fd5b9699959850939650602001949392505050565b7f4e487b7100000000000000000000000000000000000000000000000000000000600052604160045260246000fd5b6040516060810167ffffffffffffffff81118282101715620003b857620003b862000363565b60405290565b60405160a0810167ffffffffffffffff81118282101715620003b857620003b862000363565b604051601f8201601f1916810167ffffffffffffffff8111828210171562000410576200041062000363565b604052919050565b600082601f8301126200042a57600080fd5b813567ffffffffffffffff81111562000447576200044762000363565b6200045c601f8201601f1916602001620003e4565b8181528460208386010111156200047257600080fd5b816020850160208301376000918101602001919091529392505050565b600082601f830112620004a157600080fd5b8135602067ffffffffffffffff80831115620004c157620004c162000363565b8260051b620004d2838201620003e4565b9384528581018301938381019088861115620004ed57600080fd5b84880192505b8583101562000583578235848111156200050d5760008081fd5b88016060818b03601f1901811315620005265760008081fd5b6200053062000392565b6200053d888401620002a2565b8152604083810135898301529183013591878311156200055d5760008081fd5b6200056d8d8a8587010162000418565b90820152845250509184019190840190620004f3565b98975050505050505050565b600060408284031215620005a257600080fd5b6040516040810167ffffffffffffffff8282108183111715620005c957620005c962000363565b816040528293508435915080821115620005e257600080fd5b620005f0868387016200048f565b835260208501359150808211156200060757600080fd5b5062000616858286016200048f565b6020830152505092915050565b6000602082840312156200063657600080fd5b813567ffffffffffffffff808211156200064f57600080fd5b9083019060a082860312156200066457600080fd5b6200066e620003be565b8235828111156200067e57600080fd5b6200068c8782860162000418565b825250602083013582811115620006a257600080fd5b620006b08782860162000418565b602083015250604083013582811115620006c957600080fd5b620006d78782860162000418565b604083015250606083013582811115620006f057600080fd5b620006fe8782860162000418565b6060830152506080830135828111156200071757600080fd5b62000725878286016200058f565b60808301525095945050505050565b6000815180845260005b818110156200075c576020818501810151868301820152016200073e565b818111156200076f576000602083870101525b50601f01601f19169290920160200192915050565b600081518084526020808501808196508360051b8101915082860160005b85811015620007f9578284038952815180516001600160a01b031685528581015186860152604090810151606091860182905290620007e48187018362000734565b9a87019a9550505090840190600101620007a2565b5091979650505050505050565b8581526001600160a01b038516602082015260c060408201526000845160a060c08401526200083a61016084018262000734565b9050602086015160bf19808584030160e08601526200085a838362000734565b92506040880151915080858403016101008601526200087a838362000734565b92506060880151915080858403016101208601526200089a838362000734565b925060808801519150808584030161014086015250805160408352620008c4604084018262000784565b9050602082015191508281036020840152620008e1818362000784565b92505050620008fb60608401866001600160a01b03169052565b6001600160a01b038416608084015282810360a0840152600481527f736f6e67000000000000000000000000000000000000000000000000000000006020820152604081016200058356fe60806040523480156200001157600080fd5b50604051620015aa380380620015aa833981016040819052620000349162000282565b60408051808201909152600b81526a31b7b6b837b9b4ba34b7b760a91b602082015283908383818160036200006a83826200039a565b5060046200007982826200039a565b5050600780546001600160a01b0319166001600160a01b038716179055506005620000a584826200039a565b50620000bb8468056bc75e2d63100000620000c8565b505050505050506200048d565b6001600160a01b038216620001235760405162461bcd60e51b815260206004820152601f60248201527f45524332303a206d696e7420746f20746865207a65726f206164647265737300604482015260640160405180910390fd5b806002600082825462000137919062000466565b90915550506001600160a01b038216600090815260208190526040812080548392906200016690849062000466565b90915550506040518181526001600160a01b038316906000907fddf252ad1be2c89b69c2b068fc378daa952ba7f163c4a11628f55a4df523b3ef9060200160405180910390a35050565b505050565b634e487b7160e01b600052604160045260246000fd5b600082601f830112620001dd57600080fd5b81516001600160401b0380821115620001fa57620001fa620001b5565b604051601f8301601f19908116603f01168101908282118183101715620002255762000225620001b5565b816040528381526020925086838588010111156200024257600080fd5b600091505b8382101562000266578582018301518183018401529082019062000247565b83821115620002785760008385830101525b9695505050505050565b6000806000606084860312156200029857600080fd5b83516001600160a01b0381168114620002b057600080fd5b60208501519093506001600160401b0380821115620002ce57600080fd5b620002dc87838801620001cb565b93506040860151915080821115620002f357600080fd5b506200030286828701620001cb565b9150509250925092565b600181811c908216806200032157607f821691505b6020821081036200034257634e487b7160e01b600052602260045260246000fd5b50919050565b601f821115620001b057600081815260208120601f850160051c81016020861015620003715750805b601f850160051c820191505b8181101562000392578281556001016200037d565b505050505050565b81516001600160401b03811115620003b657620003b6620001b5565b620003ce81620003c784546200030c565b8462000348565b602080601f831160018114620004065760008415620003ed5750858301515b600019600386901b1c1916600185901b17855562000392565b600085815260208120601f198616915b82811015620004375788860151825594840194600190910190840162000416565b5085821015620004565787850151600019600388901b60f8161c191681555b5050505050600190811b01905550565b600082198211156200048857634e487b7160e01b600052601160045260246000fd5b500190565b61110d806200049d6000396000f3fe608060405234801561001057600080fd5b50600436106101365760003560e01c806356397c35116100b257806395d89b4111610081578063a9059cbb11610066578063a9059cbb1461027c578063dd62ed3e1461028f578063decfa258146102c857600080fd5b806395d89b4114610261578063a457c2d71461026957600080fd5b806356397c35146102095780635fe8e7cc1461021c5780636ac5db191461023157806370a082311461023857600080fd5b806318160ddd1161010957806323b872dd116100ee57806323b872dd146101d4578063313ce567146101e757806339509351146101f657600080fd5b806318160ddd146101af5780631bf7628b146101c157600080fd5b806304baa00b1461013b57806306fdde0314610159578063095ea7b3146101615780631683252d14610184575b600080fd5b6101436102dd565b6040516101509190610de4565b60405180910390f35b61014361036b565b61017461016f366004610e55565b6103fd565b6040519015158152602001610150565b600654610197906001600160a01b031681565b6040516001600160a01b039091168152602001610150565b6002545b604051908152602001610150565b600854610197906001600160a01b031681565b6101746101e2366004610e7f565b610415565b60405160128152602001610150565b610174610204366004610e55565b610494565b600754610197906001600160a01b031681565b6102246104d3565b6040516101509190610ebb565b60646101b3565b6101b3610246366004610f13565b6001600160a01b031660009081526020819052604090205490565b610143610548565b610174610277366004610e55565b610557565b61017461028a366004610e55565b610601565b6101b361029d366004610f35565b6001600160a01b03918216600090815260016020908152604080832093909416825291909152205490565b6102db6102d6366004610f13565b610666565b005b600580546102ea90610f68565b80601f016020809104026020016040519081016040528092919081815260200182805461031690610f68565b80156103635780601f1061033857610100808354040283529160200191610363565b820191906000526020600020905b81548152906001019060200180831161034657829003601f168201915b505050505081565b60606003805461037a90610f68565b80601f01602080910402602001604051908101604052809291908181526020018280546103a690610f68565b80156103f35780601f106103c8576101008083540402835291602001916103f3565b820191906000526020600020905b8154815290600101906020018083116103d657829003601f168201915b5050505050905090565b60003361040b8185856107fb565b5060019392505050565b600080610423858585610953565b9050806104775760405162461bcd60e51b815260206004820152601360248201527f7472616e7366657246726f6d206661696c65640000000000000000000000000060448201526064015b60405180910390fd5b6104808561096c565b6104898461096c565b506001949350505050565b3360008181526001602090815260408083206001600160a01b038716845290915281205490919061040b90829086906104ce908790610fb8565b6107fb565b60606009805480602002602001604051908101604052809291908181526020016000905b8282101561053f576000848152602090819020604080518082019091526002850290910180546001600160a01b031682526001908101548284015290835290920191016104f7565b50505050905090565b60606004805461037a90610f68565b3360008181526001602090815260408083206001600160a01b0387168452909152812054909190838110156105f45760405162461bcd60e51b815260206004820152602560248201527f45524332303a2064656372656173656420616c6c6f77616e63652062656c6f7760448201527f207a65726f000000000000000000000000000000000000000000000000000000606482015260840161046e565b61048982868684036107fb565b60008061060e8484610b2d565b90508061065d5760405162461bcd60e51b815260206004820152600f60248201527f7472616e73666572206661696c65640000000000000000000000000000000000604482015260640161046e565b61040b8461096c565b6007546001600160a01b0316336001600160a01b0316146106c95760405162461bcd60e51b815260206004820152601b60248201527f6f6e6c79206c656467657220616c6c6f77656420746f2062696e640000000000604482015260640161046e565b6006546001600160a01b0316156107225760405162461bcd60e51b815260206004820152601560248201527f616c726561647920626f756e6420746f20736f6e670000000000000000000000604482015260640161046e565b6001600160a01b0381166107785760405162461bcd60e51b815260206004820152600c60248201527f696e76616c696420736f6e670000000000000000000000000000000000000000604482015260640161046e565b6006805473ffffffffffffffffffffffffffffffffffffffff19166001600160a01b038381169182179092556007549091166000818152602081905260409020547f7436f71aa25c40311b9ae8ba3476987465977667616417c002b56e645ffbd73e92309160056040516107f0959493929190610fd0565b60405180910390a150565b6001600160a01b0383166108765760405162461bcd60e51b8152602060048201526024808201527f45524332303a20617070726f76652066726f6d20746865207a65726f2061646460448201527f7265737300000000000000000000000000000000000000000000000000000000606482015260840161046e565b6001600160a01b0382166108f25760405162461bcd60e51b815260206004820152602260248201527f45524332303a20617070726f766520746f20746865207a65726f20616464726560448201527f7373000000000000000000000000000000000000000000000000000000000000606482015260840161046e565b6001600160a01b0383811660008181526001602090815260408083209487168084529482529182902085905590518481527f8c5be1e5ebec7d5bd14f71427d1e84f3dd0314c0f7b2291e5b200ac8c7c3b925910160405180910390a3505050565b600033610961858285610b3b565b610489858585610bcd565b6001600160a01b0381166000908152600a60205260409020541580156109a057506008546001600160a01b03828116911614155b15610add57604080518082018252600060208083018290526001600160a01b03851680845282528190529190912054602082019081526009805460018082018355600083905284517f6e1540171b6c0c960b71a7020d9f60077f6af931a8bbf590da0223dacf75c7af6002909302928301805473ffffffffffffffffffffffffffffffffffffffff19166001600160a01b0390921691909117905592517f6e1540171b6c0c960b71a7020d9f60077f6af931a8bbf590da0223dacf75c7b09091015554610a6d91906110aa565b6001600160a01b0383166000908152600a602052604081209190915560098054909190610a9c57610a9c6110c1565b60009182526020909120600290910201546008805473ffffffffffffffffffffffffffffffffffffffff19166001600160a01b039092169190911790555050565b6001600160a01b03811660009081526020818152604080832054600a90925290912054600980549091908110610b1557610b156110c1565b90600052602060002090600202016001018190555050565b60003361040b818585610bcd565b6001600160a01b038381166000908152600160209081526040808320938616835292905220546000198114610bc75781811015610bba5760405162461bcd60e51b815260206004820152601d60248201527f45524332303a20696e73756666696369656e7420616c6c6f77616e6365000000604482015260640161046e565b610bc784848484036107fb565b50505050565b6001600160a01b038316610c495760405162461bcd60e51b815260206004820152602560248201527f45524332303a207472616e736665722066726f6d20746865207a65726f20616460448201527f6472657373000000000000000000000000000000000000000000000000000000606482015260840161046e565b6001600160a01b038216610cc55760405162461bcd60e51b815260206004820152602360248201527f45524332303a207472616e7366657220746f20746865207a65726f206164647260448201527f6573730000000000000000000000000000000000000000000000000000000000606482015260840161046e565b6001600160a01b03831660009081526020819052604090205481811015610d545760405162461bcd60e51b815260206004820152602660248201527f45524332303a207472616e7366657220616d6f756e742065786365656473206260448201527f616c616e63650000000000000000000000000000000000000000000000000000606482015260840161046e565b6001600160a01b03808516600090815260208190526040808220858503905591851681529081208054849290610d8b908490610fb8565b92505081905550826001600160a01b0316846001600160a01b03167fddf252ad1be2c89b69c2b068fc378daa952ba7f163c4a11628f55a4df523b3ef84604051610dd791815260200190565b60405180910390a3610bc7565b600060208083528351808285015260005b81811015610e1157858101830151858201604001528201610df5565b81811115610e23576000604083870101525b50601f01601f1916929092016040019392505050565b80356001600160a01b0381168114610e5057600080fd5b919050565b60008060408385031215610e6857600080fd5b610e7183610e39565b946020939093013593505050565b600080600060608486031215610e9457600080fd5b610e9d84610e39565b9250610eab60208501610e39565b9150604084013590509250925092565b602080825282518282018190526000919060409081850190868401855b82811015610f0657815180516001600160a01b03168552860151868501529284019290850190600101610ed8565b5091979650505050505050565b600060208284031215610f2557600080fd5b610f2e82610e39565b9392505050565b60008060408385031215610f4857600080fd5b610f5183610e39565b9150610f5f60208401610e39565b90509250929050565b600181811c90821680610f7c57607f821691505b602082108103610f9c57634e487b7160e01b600052602260045260246000fd5b50919050565b634e487b7160e01b600052601160045260246000fd5b60008219821115610fcb57610fcb610fa2565b500190565b60006001600160a01b038088168352602081881681850152818716604085015285606085015260a0608085015260009150845482600182811c91508083168061101a57607f831692505b848310810361103757634e487b7160e01b86526022600452602486fd5b60a0880183905260c08801818015611056576001811461106c57611097565b60ff198616825284151560051b82019750611097565b60008b81526020902060005b8681101561109157815484820152908501908801611078565b83019850505b50959d9c50505050505050505050505050565b6000828210156110bc576110bc610fa2565b500390565b634e487b7160e01b600052603260045260246000fdfea2646970667358221220e901194a65eb2aa24d8c0feba6821c6dfe1c2c9b6ce433aad064f333e1e8972964736f6c634300080f003360806040523480156200001157600080fd5b50604051620015a8380380620015a8833981016040819052620000349162000280565b6040805180820190915260098152687265636f7264696e6760b81b6020820152839083838181600362000068838262000398565b50600462000077828262000398565b5050600780546001600160a01b0319166001600160a01b038716179055506005620000a3848262000398565b50620000b98468056bc75e2d63100000620000c6565b505050505050506200048b565b6001600160a01b038216620001215760405162461bcd60e51b815260206004820152601f60248201527f45524332303a206d696e7420746f20746865207a65726f206164647265737300604482015260640160405180910390fd5b806002600082825462000135919062000464565b90915550506001600160a01b038216600090815260208190526040812080548392906200016490849062000464565b90915550506040518181526001600160a01b038316906000907fddf252ad1be2c89b69c2b068fc378daa952ba7f163c4a11628f55a4df523b3ef9060200160405180910390a35050565b505050565b634e487b7160e01b600052604160045260246000fd5b600082601f830112620001db57600080fd5b81516001600160401b0380821115620001f857620001f8620001b3565b604051601f8301601f19908116603f01168101908282118183101715620002235762000223620001b3565b816040528381526020925086838588010111156200024057600080fd5b600091505b8382101562000264578582018301518183018401529082019062000245565b83821115620002765760008385830101525b9695505050505050565b6000806000606084860312156200029657600080fd5b83516001600160a01b0381168114620002ae57600080fd5b60208501519093506001600160401b0380821115620002cc57600080fd5b620002da87838801620001c9565b93506040860151915080821115620002f157600080fd5b506200030086828701620001c9565b9150509250925092565b600181811c908216806200031f57607f821691505b6020821081036200034057634e487b7160e01b600052602260045260246000fd5b50919050565b601f821115620001ae57600081815260208120601f850160051c810160208610156200036f5750805b601f850160051c820191505b8181101562000390578281556001016200037b565b505050505050565b81516001600160401b03811115620003b457620003b4620001b3565b620003cc81620003c584546200030a565b8462000346565b602080601f831160018114620004045760008415620003eb5750858301515b600019600386901b1c1916600185901b17855562000390565b600085815260208120601f198616915b82811015620004355788860151825594840194600190910190840162000414565b5085821015620004545787850151600019600388901b60f8161c191681555b5050505050600190811b01905550565b600082198211156200048657634e487b7160e01b600052601160045260246000fd5b500190565b61110d806200049b6000396000f3fe608060405234801561001057600080fd5b50600436106101365760003560e01c806356397c35116100b257806395d89b4111610081578063a9059cbb11610066578063a9059cbb1461027c578063dd62ed3e1461028f578063decfa258146102c857600080fd5b806395d89b4114610261578063a457c2d71461026957600080fd5b806356397c35146102095780635fe8e7cc1461021c5780636ac5db191461023157806370a082311461023857600080fd5b806318160ddd1161010957806323b872dd116100ee57806323b872dd146101d4578063313ce567146101e757806339509351146101f657600080fd5b806318160ddd146101af5780631bf7628b146101c157600080fd5b806304baa00b1461013b57806306fdde0314610159578063095ea7b3146101615780631683252d14610184575b600080fd5b6101436102dd565b6040516101509190610de4565b60405180910390f35b61014361036b565b61017461016f366004610e55565b6103fd565b6040519015158152602001610150565b600654610197906001600160a01b031681565b6040516001600160a01b039091168152602001610150565b6002545b604051908152602001610150565b600854610197906001600160a01b031681565b6101746101e2366004610e7f565b610415565b60405160128152602001610150565b610174610204366004610e55565b610494565b600754610197906001600160a01b031681565b6102246104d3565b6040516101509190610ebb565b60646101b3565b6101b3610246366004610f13565b6001600160a01b031660009081526020819052604090205490565b610143610548565b610174610277366004610e55565b610557565b61017461028a366004610e55565b610601565b6101b361029d366004610f35565b6001600160a01b03918216600090815260016020908152604080832093909416825291909152205490565b6102db6102d6366004610f13565b610666565b005b600580546102ea90610f68565b80601f016020809104026020016040519081016040528092919081815260200182805461031690610f68565b80156103635780601f1061033857610100808354040283529160200191610363565b820191906000526020600020905b81548152906001019060200180831161034657829003601f168201915b505050505081565b60606003805461037a90610f68565b80601f01602080910402602001604051908101604052809291908181526020018280546103a690610f68565b80156103f35780601f106103c8576101008083540402835291602001916103f3565b820191906000526020600020905b8154815290600101906020018083116103d657829003601f168201915b5050505050905090565b60003361040b8185856107fb565b5060019392505050565b600080610423858585610953565b9050806104775760405162461bcd60e51b815260206004820152601360248201527f7472616e7366657246726f6d206661696c65640000000000000000000000000060448201526064015b60405180910390fd5b6104808561096c565b6104898461096c565b506001949350505050565b3360008181526001602090815260408083206001600160a01b038716845290915281205490919061040b90829086906104ce908790610fb8565b6107fb565b60606009805480602002602001604051908101604052809291908181526020016000905b8282101561053f576000848152602090819020604080518082019091526002850290910180546001600160a01b031682526001908101548284015290835290920191016104f7565b50505050905090565b60606004805461037a90610f68565b3360008181526001602090815260408083206001600160a01b0387168452909152812054909190838110156105f45760405162461bcd60e51b815260206004820152602560248201527f45524332303a2064656372656173656420616c6c6f77616e63652062656c6f7760448201527f207a65726f000000000000000000000000000000000000000000000000000000606482015260840161046e565b61048982868684036107fb565b60008061060e8484610b2d565b90508061065d5760405162461bcd60e51b815260206004820152600f60248201527f7472616e73666572206661696c65640000000000000000000000000000000000604482015260640161046e565b61040b8461096c565b6007546001600160a01b0316336001600160a01b0316146106c95760405162461bcd60e51b815260206004820152601b60248201527f6f6e6c79206c656467657220616c6c6f77656420746f2062696e640000000000604482015260640161046e565b6006546001600160a01b0316156107225760405162461bcd60e51b815260206004820152601560248201527f616c726561647920626f756e6420746f20736f6e670000000000000000000000604482015260640161046e565b6001600160a01b0381166107785760405162461bcd60e51b815260206004820152600c60248201527f696e76616c696420736f6e670000000000000000000000000000000000000000604482015260640161046e565b6006805473ffffffffffffffffffffffffffffffffffffffff19166001600160a01b038381169182179092556007549091166000818152602081905260409020547f7436f71aa25c40311b9ae8ba3476987465977667616417c002b56e645ffbd73e92309160056040516107f0959493929190610fd0565b60405180910390a150565b6001600160a01b0383166108765760405162461bcd60e51b8152602060048201526024808201527f45524332303a20617070726f76652066726f6d20746865207a65726f2061646460448201527f7265737300000000000000000000000000000000000000000000000000000000606482015260840161046e565b6001600160a01b0382166108f25760405162461bcd60e51b815260206004820152602260248201527f45524332303a20617070726f766520746f20746865207a65726f20616464726560448201527f7373000000000000000000000000000000000000000000000000000000000000606482015260840161046e565b6001600160a01b0383811660008181526001602090815260408083209487168084529482529182902085905590518481527f8c5be1e5ebec7d5bd14f71427d1e84f3dd0314c0f7b2291e5b200ac8c7c3b925910160405180910390a3505050565b600033610961858285610b3b565b610489858585610bcd565b6001600160a01b0381166000908152600a60205260409020541580156109a057506008546001600160a01b03828116911614155b15610add57604080518082018252600060208083018290526001600160a01b03851680845282528190529190912054602082019081526009805460018082018355600083905284517f6e1540171b6c0c960b71a7020d9f60077f6af931a8bbf590da0223dacf75c7af6002909302928301805473ffffffffffffffffffffffffffffffffffffffff19166001600160a01b0390921691909117905592517f6e1540171b6c0c960b71a7020d9f60077f6af931a8bbf590da0223dacf75c7b09091015554610a6d91906110aa565b6001600160a01b0383166000908152600a602052604081209190915560098054909190610a9c57610a9c6110c1565b60009182526020909120600290910201546008805473ffffffffffffffffffffffffffffffffffffffff19166001600160a01b039092169190911790555050565b6001600160a01b03811660009081526020818152604080832054600a90925290912054600980549091908110610b1557610b156110c1565b90600052602060002090600202016001018190555050565b60003361040b818585610bcd565b6001600160a01b038381166000908152600160209081526040808320938616835292905220546000198114610bc75781811015610bba5760405162461bcd60e51b815260206004820152601d60248201527f45524332303a20696e73756666696369656e7420616c6c6f77616e6365000000604482015260640161046e565b610bc784848484036107fb565b50505050565b6001600160a01b038316610c495760405162461bcd60e51b815260206004820152602560248201527f45524332303a207472616e736665722066726f6d20746865207a65726f20616460448201527f6472657373000000000000000000000000000000000000000000000000000000606482015260840161046e565b6001600160a01b038216610cc55760405162461bcd60e51b815260206004820152602360248201527f45524332303a207472616e7366657220746f20746865207a65726f206164647260448201527f6573730000000000000000000000000000000000000000000000000000000000606482015260840161046e565b6001600160a01b03831660009081526020819052604090205481811015610d545760405162461bcd60e51b815260206004820152602660248201527f45524332303a207472616e7366657220616d6f756e742065786365656473206260448201527f616c616e63650000000000000000000000000000000000000000000000000000606482015260840161046e565b6001600160a01b03808516600090815260208190526040808220858503905591851681529081208054849290610d8b908490610fb8565b92505081905550826001600160a01b0316846001600160a01b03167fddf252ad1be2c89b69c2b068fc378daa952ba7f163c4a11628f55a4df523b3ef84604051610dd791815260200190565b60405180910390a3610bc7565b600060208083528351808285015260005b81811015610e1157858101830151858201604001528201610df5565b81811115610e23576000604083870101525b50601f01601f1916929092016040019392505050565b80356001600160a01b0381168114610e5057600080fd5b919050565b60008060408385031215610e6857600080fd5b610e7183610e39565b946020939093013593505050565b600080600060608486031215610e9457600080fd5b610e9d84610e39565b9250610eab60208501610e39565b9150604084013590509250925092565b602080825282518282018190526000919060409081850190868401855b82811015610f0657815180516001600160a01b03168552860151868501529284019290850190600101610ed8565b5091979650505050505050565b600060208284031215610f2557600080fd5b610f2e82610e39565b9392505050565b60008060408385031215610f4857600080fd5b610f5183610e39565b9150610f5f60208401610e39565b90509250929050565b600181811c90821680610f7c57607f821691505b602082108103610f9c57634e487b7160e01b600052602260045260246000fd5b50919050565b634e487b7160e01b600052601160045260246000fd5b60008219821115610fcb57610fcb610fa2565b500190565b60006001600160a01b038088168352602081881681850152818716604085015285606085015260a0608085015260009150845482600182811c91508083168061101a57607f831692505b848310810361103757634e487b7160e01b86526022600452602486fd5b60a0880183905260c08801818015611056576001811461106c57611097565b60ff198616825284151560051b82019750611097565b60008b81526020902060005b8681101561109157815484820152908501908801611078565b83019850505b50959d9c50505050505050505050505050565b6000828210156110bc576110bc610fa2565b500390565b634e487b7160e01b600052603260045260246000fdfea2646970667358221220b46106244cf604ed1a92732acb8e1e0c2af15e3cd5945287b1ea5e8dc306e7e064736f6c634300080f00336080604052600d805460ff191690553480156200001b57600080fd5b5060405162002568380380620025688339810160408190526200003e9162000780565b83516040850151600062000053838262000987565b50600162000062828262000987565b5050600780546001600160a01b038089166001600160a01b031992831617909255600880548784169083161790556009805492861692909116919091179055506060840151600a90620000b6908262000987565b506020840151600b90620000cb908262000987565b50600c8690556006620000df828262000987565b50620000ec858762000144565b8351600c5460608601516040517fa4dc6a40872929cd886a1af8564a739d88727a5d70fdc8947b5076e5ac53233093620001309390928a9289928992339262000a81565b60405180910390a150505050505062000b7f565b620001668282604051806020016040528060008152506200016a60201b60201c565b5050565b620001768383620001e6565b6200018560008484846200032e565b620001e15760405162461bcd60e51b815260206004820152603260248201526000805160206200254883398151915260448201527131b2b4bb32b91034b6b83632b6b2b73a32b960711b60648201526084015b60405180910390fd5b505050565b6001600160a01b0382166200023e5760405162461bcd60e51b815260206004820181905260248201527f4552433732313a206d696e7420746f20746865207a65726f20616464726573736044820152606401620001d8565b6000818152600260205260409020546001600160a01b031615620002a55760405162461bcd60e51b815260206004820152601c60248201527f4552433732313a20746f6b656e20616c7265616479206d696e746564000000006044820152606401620001d8565b6001600160a01b0382166000908152600360205260408120805460019290620002d090849062000ae6565b909155505060008181526002602052604080822080546001600160a01b0319166001600160a01b03861690811790915590518392907fddf252ad1be2c89b69c2b068fc378daa952ba7f163c4a11628f55a4df523b3ef908290a45050565b60006200034f846001600160a01b03166200048a60201b62000b451760201c565b156200047e57604051630a85bd0160e11b81526001600160a01b0385169063150b7a02906200038990339089908890889060040162000b0d565b6020604051808303816000875af1925050508015620003c7575060408051601f3d908101601f19168201909252620003c49181019062000b4c565b60015b62000463573d808015620003f8576040519150601f19603f3d011682016040523d82523d6000602084013e620003fd565b606091505b5080516000036200045b5760405162461bcd60e51b815260206004820152603260248201526000805160206200254883398151915260448201527131b2b4bb32b91034b6b83632b6b2b73a32b960711b6064820152608401620001d8565b805181602001fd5b6001600160e01b031916630a85bd0160e11b14905062000482565b5060015b949350505050565b6001600160a01b03163b151590565b80516001600160a01b0381168114620004b157600080fd5b919050565b634e487b7160e01b600052604160045260246000fd5b604051606081016001600160401b0381118282101715620004f157620004f1620004b6565b60405290565b60405160a081016001600160401b0381118282101715620004f157620004f1620004b6565b604051601f8201601f191681016001600160401b0381118282101715620005475762000547620004b6565b604052919050565b60005b838110156200056c57818101518382015260200162000552565b838111156200057c576000848401525b50505050565b600082601f8301126200059457600080fd5b81516001600160401b03811115620005b057620005b0620004b6565b620005c5601f8201601f19166020016200051c565b818152846020838601011115620005db57600080fd5b620004828260208301602087016200054f565b600082601f8301126200060057600080fd5b815160206001600160401b03808311156200061f576200061f620004b6565b8260051b620006308382016200051c565b93845285810183019383810190888611156200064b57600080fd5b84880192505b85831015620006e1578251848111156200066b5760008081fd5b88016060818b03601f1901811315620006845760008081fd5b6200068e620004cc565b6200069b88840162000499565b815260408381015189830152918301519187831115620006bb5760008081fd5b620006cb8d8a8587010162000582565b9082015284525050918401919084019062000651565b98975050505050505050565b6000604082840312156200070057600080fd5b604080519081016001600160401b038082118383101715620007265762000726620004b6565b8160405282935084519150808211156200073f57600080fd5b6200074d86838701620005ee565b835260208501519150808211156200076457600080fd5b506200077385828601620005ee565b6020830152505092915050565b60008060008060008060c087890312156200079a57600080fd5b86519550620007ac6020880162000499565b60408801519095506001600160401b0380821115620007ca57600080fd5b9088019060a0828b031215620007df57600080fd5b620007e9620004f7565b825182811115620007f957600080fd5b620008078c82860162000582565b8252506020830151828111156200081d57600080fd5b6200082b8c82860162000582565b6020830152506040830151828111156200084457600080fd5b620008528c82860162000582565b6040830152506060830151828111156200086b57600080fd5b620008798c82860162000582565b6060830152506080830151828111156200089257600080fd5b620008a08c828601620006ed565b6080830152509550620008b660608a0162000499565b9450620008c660808a0162000499565b935060a0890151915080821115620008dd57600080fd5b50620008ec89828a0162000582565b9150509295509295509295565b600181811c908216806200090e57607f821691505b6020821081036200092f57634e487b7160e01b600052602260045260246000fd5b50919050565b601f821115620001e157600081815260208120601f850160051c810160208610156200095e5750805b601f850160051c820191505b818110156200097f578281556001016200096a565b505050505050565b81516001600160401b03811115620009a357620009a3620004b6565b620009bb81620009b48454620008f9565b8462000935565b602080601f831160018114620009f35760008415620009da5750858301515b600019600386901b1c1916600185901b1785556200097f565b600085815260208120601f198616915b8281101562000a245788860151825594840194600190910190840162000a03565b508582101562000a435787850151600019600388901b60f8161c191681555b5050505050600190811b01905550565b6000815180845262000a6d8160208601602086016200054f565b601f01601f19169290920160200192915050565b60e08152600062000a9660e083018a62000a53565b6001600160a01b038981166020850152888116604085015287811660608501528616608084015260a0830185905282810360c084015262000ad8818562000a53565b9a9950505050505050505050565b6000821982111562000b0857634e487b7160e01b600052601160045260246000fd5b500190565b6001600160a01b038581168252841660208201526040810183905260806060820181905260009062000b429083018462000a53565b9695505050505050565b60006020828403121562000b5f57600080fd5b81516001600160e01b03198116811462000b7857600080fd5b9392505050565b6119b98062000b8f6000396000f3fe608060405234801561001057600080fd5b50600436106101a35760003560e01c806356397c35116100ee5780637403dcee11610097578063b88d4fde11610071578063b88d4fde1461033c578063c87b56dd1461034f578063e985e9c514610362578063efa545a91461039e57600080fd5b80637403dcee1461030e57806395d89b4114610321578063a22cb4651461032957600080fd5b80636605dfa7116100c85780636605dfa7146102d35780636b9241fc146102e657806370a08231146102fb57600080fd5b806356397c351461029c5780635655c6d9146102ad5780636352211e146102c057600080fd5b8063095ea7b31161015057806323b872dd1161012a57806323b872dd1461026e57806324c8c6981461028157806342842e0e1461028957600080fd5b8063095ea7b31461023557806317d70f7c1461024a578063186601ca1461026157600080fd5b806304f7b05c1161018157806304f7b05c146101ed57806306fdde0314610202578063081812fc1461020a57600080fd5b806301ffc9a7146101a857806303ee438c146101d057806304baa00b146101e5575b600080fd5b6101bb6101b6366004611323565b6103b1565b60405190151581526020015b60405180910390f35b6101d86103dc565b6040516101c79190611398565b6101d861046a565b6101f5610477565b6040516101c791906113ab565b6101d861050a565b61021d6102183660046113f8565b61059c565b6040516001600160a01b0390911681526020016101c7565b61024861024336600461142d565b6105c3565b005b610253600c5481565b6040519081526020016101c7565b600d546101bb9060ff1681565b61024861027c366004611457565b6106f9565b6101d8610780565b610248610297366004611457565b61078d565b6007546001600160a01b031661021d565b6102486102bb36600461153f565b6107a8565b61021d6102ce3660046113f8565b610926565b60085461021d906001600160a01b031681565b6040516303cfe93760e01b81526020016101c7565b6102536103093660046115a3565b61098b565b60075461021d906001600160a01b031681565b6101d8610a25565b6102486103373660046115be565b610a34565b61024861034a3660046115fa565b610a43565b6101d861035d3660046113f8565b610ad1565b6101bb610370366004611676565b6001600160a01b03918216600090815260056020908152604080832093909416825291909152205460ff1690565b60095461021d906001600160a01b031681565b60006001600160e01b031982166303cfe93760e01b14806103d657506103d682610b54565b92915050565b600a80546103e9906116a9565b80601f0160208091040260200160405190810160405280929190818152602001828054610415906116a9565b80156104625780601f1061043757610100808354040283529160200191610462565b820191906000526020600020905b81548152906001019060200180831161044557829003601f168201915b505050505081565b600680546103e9906116a9565b60408051600280825260608083018452926000929190602083019080368337505060085482519293506001600160a01b0316918391506000906104bc576104bc6116e3565b6001600160a01b0392831660209182029290920101526009548251911690829060019081106104ed576104ed6116e3565b6001600160a01b0390921660209283029190910190910152919050565b606060008054610519906116a9565b80601f0160208091040260200160405190810160405280929190818152602001828054610545906116a9565b80156105925780601f1061056757610100808354040283529160200191610592565b820191906000526020600020905b81548152906001019060200180831161057557829003601f168201915b5050505050905090565b60006105a782610bef565b506000908152600460205260409020546001600160a01b031690565b60006105ce82610926565b9050806001600160a01b0316836001600160a01b03160361065c5760405162461bcd60e51b815260206004820152602160248201527f4552433732313a20617070726f76616c20746f2063757272656e74206f776e6560448201527f720000000000000000000000000000000000000000000000000000000000000060648201526084015b60405180910390fd5b336001600160a01b038216148061067857506106788133610370565b6106ea5760405162461bcd60e51b815260206004820152603e60248201527f4552433732313a20617070726f76652063616c6c6572206973206e6f7420746f60448201527f6b656e206f776e6572206e6f7220617070726f76656420666f7220616c6c00006064820152608401610653565b6106f48383610c56565b505050565b6107033382610cd1565b6107755760405162461bcd60e51b815260206004820152602e60248201527f4552433732313a2063616c6c6572206973206e6f7420746f6b656e206f776e6560448201527f72206e6f7220617070726f7665640000000000000000000000000000000000006064820152608401610653565b6106f4838383610d50565b600b80546103e9906116a9565b6106f483838360405180602001604052806000815250610a43565b6000600a80546107b7906116a9565b80601f01602080910402602001604051908101604052809291908181526020018280546107e3906116a9565b80156108305780601f1061080557610100808354040283529160200191610830565b820191906000526020600020905b81548152906001019060200180831161081357829003601f168201915b505050505090506000600b8054610846906116a9565b80601f0160208091040260200160405190810160405280929190818152602001828054610872906116a9565b80156108bf5780601f10610894576101008083540402835291602001916108bf565b820191906000526020600020905b8154815290600101906020018083116108a257829003601f168201915b5050505050905083600a90816108d59190611747565b50600b6108e28482611747565b507f291ae74c7533db739130c6791815858c63b858e5f07ead9bbda4b1e49ac80803828286866040516109189493929190611807565b60405180910390a150505050565b6000818152600260205260408120546001600160a01b0316806103d65760405162461bcd60e51b815260206004820152601860248201527f4552433732313a20696e76616c696420746f6b656e20494400000000000000006044820152606401610653565b60006001600160a01b038216610a095760405162461bcd60e51b815260206004820152602960248201527f4552433732313a2061646472657373207a65726f206973206e6f74206120766160448201527f6c6964206f776e657200000000000000000000000000000000000000000000006064820152608401610653565b506001600160a01b031660009081526003602052604090205490565b606060018054610519906116a9565b610a3f338383610f2a565b5050565b610a4d3383610cd1565b610abf5760405162461bcd60e51b815260206004820152602e60248201527f4552433732313a2063616c6c6572206973206e6f7420746f6b656e206f776e6560448201527f72206e6f7220617070726f7665640000000000000000000000000000000000006064820152608401610653565b610acb84848484610ff8565b50505050565b6060610adc82610bef565b6000610af360408051602081019091526000815290565b90506000815111610b135760405180602001604052806000815250610b3e565b80610b1d84611081565b604051602001610b2e92919061185f565b6040516020818303038152906040525b9392505050565b6001600160a01b03163b151590565b60006001600160e01b031982167f80ac58cd000000000000000000000000000000000000000000000000000000001480610bb757506001600160e01b031982167f5b5e139f00000000000000000000000000000000000000000000000000000000145b806103d657507f01ffc9a7000000000000000000000000000000000000000000000000000000006001600160e01b03198316146103d6565b6000818152600260205260409020546001600160a01b0316610c535760405162461bcd60e51b815260206004820152601860248201527f4552433732313a20696e76616c696420746f6b656e20494400000000000000006044820152606401610653565b50565b6000818152600460205260409020805473ffffffffffffffffffffffffffffffffffffffff19166001600160a01b0384169081179091558190610c9882610926565b6001600160a01b03167f8c5be1e5ebec7d5bd14f71427d1e84f3dd0314c0f7b2291e5b200ac8c7c3b92560405160405180910390a45050565b600080610cdd83610926565b9050806001600160a01b0316846001600160a01b03161480610d2457506001600160a01b0380821660009081526005602090815260408083209388168352929052205460ff165b80610d485750836001600160a01b0316610d3d8461059c565b6001600160a01b0316145b949350505050565b826001600160a01b0316610d6382610926565b6001600160a01b031614610ddf5760405162461bcd60e51b815260206004820152602560248201527f4552433732313a207472616e736665722066726f6d20696e636f72726563742060448201527f6f776e65720000000000000000000000000000000000000000000000000000006064820152608401610653565b6001600160a01b038216610e5a5760405162461bcd60e51b8152602060048201526024808201527f4552433732313a207472616e7366657220746f20746865207a65726f2061646460448201527f72657373000000000000000000000000000000000000000000000000000000006064820152608401610653565b610e65600082610c56565b6001600160a01b0383166000908152600360205260408120805460019290610e8e9084906118a4565b90915550506001600160a01b0382166000908152600360205260408120805460019290610ebc9084906118bb565b9091555050600081815260026020526040808220805473ffffffffffffffffffffffffffffffffffffffff19166001600160a01b0386811691821790925591518493918716917fddf252ad1be2c89b69c2b068fc378daa952ba7f163c4a11628f55a4df523b3ef91a4505050565b816001600160a01b0316836001600160a01b031603610f8b5760405162461bcd60e51b815260206004820152601960248201527f4552433732313a20617070726f766520746f2063616c6c6572000000000000006044820152606401610653565b6001600160a01b03838116600081815260056020908152604080832094871680845294825291829020805460ff191686151590811790915591519182527f17307eab39ab6107e8899845ad3d59bd9653f200f220920489ca2b5937696c31910160405180910390a3505050565b611003848484610d50565b61100f848484846111b6565b610acb5760405162461bcd60e51b815260206004820152603260248201527f4552433732313a207472616e7366657220746f206e6f6e20455243373231526560448201527f63656976657220696d706c656d656e74657200000000000000000000000000006064820152608401610653565b6060816000036110c457505060408051808201909152600181527f3000000000000000000000000000000000000000000000000000000000000000602082015290565b8160005b81156110ee57806110d8816118d3565b91506110e79050600a83611902565b91506110c8565b60008167ffffffffffffffff81111561110957611109611493565b6040519080825280601f01601f191660200182016040528015611133576020820181803683370190505b5090505b8415610d48576111486001836118a4565b9150611155600a86611916565b6111609060306118bb565b60f81b818381518110611175576111756116e3565b60200101907effffffffffffffffffffffffffffffffffffffffffffffffffffffffffffff1916908160001a9053506111af600a86611902565b9450611137565b60006001600160a01b0384163b1561130257604051630a85bd0160e11b81526001600160a01b0385169063150b7a02906111fa90339089908890889060040161192a565b6020604051808303816000875af1925050508015611235575060408051601f3d908101601f1916820190925261123291810190611966565b60015b6112e8573d808015611263576040519150601f19603f3d011682016040523d82523d6000602084013e611268565b606091505b5080516000036112e05760405162461bcd60e51b815260206004820152603260248201527f4552433732313a207472616e7366657220746f206e6f6e20455243373231526560448201527f63656976657220696d706c656d656e74657200000000000000000000000000006064820152608401610653565b805181602001fd5b6001600160e01b031916630a85bd0160e11b149050610d48565b506001949350505050565b6001600160e01b031981168114610c5357600080fd5b60006020828403121561133557600080fd5b8135610b3e8161130d565b60005b8381101561135b578181015183820152602001611343565b83811115610acb5750506000910152565b60008151808452611384816020860160208601611340565b601f01601f19169290920160200192915050565b602081526000610b3e602083018461136c565b6020808252825182820181905260009190848201906040850190845b818110156113ec5783516001600160a01b0316835292840192918401916001016113c7565b50909695505050505050565b60006020828403121561140a57600080fd5b5035919050565b80356001600160a01b038116811461142857600080fd5b919050565b6000806040838503121561144057600080fd5b61144983611411565b946020939093013593505050565b60008060006060848603121561146c57600080fd5b61147584611411565b925061148360208501611411565b9150604084013590509250925092565b634e487b7160e01b600052604160045260246000fd5b600067ffffffffffffffff808411156114c4576114c4611493565b604051601f8501601f19908116603f011681019082821181831017156114ec576114ec611493565b8160405280935085815286868601111561150557600080fd5b858560208301376000602087830101525050509392505050565b600082601f83011261153057600080fd5b610b3e838335602085016114a9565b6000806040838503121561155257600080fd5b823567ffffffffffffffff8082111561156a57600080fd5b6115768683870161151f565b9350602085013591508082111561158c57600080fd5b506115998582860161151f565b9150509250929050565b6000602082840312156115b557600080fd5b610b3e82611411565b600080604083850312156115d157600080fd5b6115da83611411565b9150602083013580151581146115ef57600080fd5b809150509250929050565b6000806000806080858703121561161057600080fd5b61161985611411565b935061162760208601611411565b925060408501359150606085013567ffffffffffffffff81111561164a57600080fd5b8501601f8101871361165b57600080fd5b61166a878235602084016114a9565b91505092959194509250565b6000806040838503121561168957600080fd5b61169283611411565b91506116a060208401611411565b90509250929050565b600181811c908216806116bd57607f821691505b6020821081036116dd57634e487b7160e01b600052602260045260246000fd5b50919050565b634e487b7160e01b600052603260045260246000fd5b601f8211156106f457600081815260208120601f850160051c810160208610156117205750805b601f850160051c820191505b8181101561173f5782815560010161172c565b505050505050565b815167ffffffffffffffff81111561176157611761611493565b6117758161176f84546116a9565b846116f9565b602080601f8311600181146117aa57600084156117925750858301515b600019600386901b1c1916600185901b17855561173f565b600085815260208120601f198616915b828110156117d9578886015182559484019460019091019084016117ba565b50858210156117f75787850151600019600388901b60f8161c191681555b5050505050600190811b01905550565b60808152600061181a608083018761136c565b828103602084015261182c818761136c565b90508281036040840152611840818661136c565b90508281036060840152611854818561136c565b979650505050505050565b60008351611871818460208801611340565b835190830190611885818360208801611340565b01949350505050565b634e487b7160e01b600052601160045260246000fd5b6000828210156118b6576118b661188e565b500390565b600082198211156118ce576118ce61188e565b500190565b6000600182016118e5576118e561188e565b5060010190565b634e487b7160e01b600052601260045260246000fd5b600082611911576119116118ec565b500490565b600082611925576119256118ec565b500690565b60006001600160a01b0380871683528086166020840152508360408301526080606083015261195c608083018461136c565b9695505050505050565b60006020828403121561197857600080fd5b8151610b3e8161130d56fea26469706673582212206fb7047348bf47648985e3d94846d9280dc3af2ebbdb87e5c7220841e833953564736f6c634300080f00334552433732313a207472616e7366657220746f206e6f6e204552433732315265a26469706673582212202d15003992a25d3470e2c2c764b1f70b99cc15c5e9899e9d8e90b206fc1777ab64736f6c634300080f0033",
    "linkReferences": {}
  },
  "methodIdentifiers": {
    "mintSong((string,string,string,string,((address,uint256,string)[],(address,uint256,string)[])))": "3619da47",
    "onERC721Received(address,address,uint256,bytes)": "150b7a02"
  },
  "id": 2
}